S017000032302D31302D322D362D312D302D302E7372656343
S3150800400000000120DD58000899520008A152000856
S31508004010A9520008B1520008B95200080000000071
S3150800402000000000000000000000000091D5000814
S31508004030C152000800000000E1D7000849D800086E
S315080040402D5900082D5900082D5900082D5900082A
S315080040502D5900082D5900082D5900082D5900081A
S315080040602D5900082D5900082D5900082D5900080A
S315080040702D5900082D5900082D5900082D590008FA
S315080040802D5900082D5900082D5900080000000078
S315080040900000000000000000000000002D59000884
S315080040A02D590008D15200082D590008E55200087C
S315080040B0F95200080D5300082D590008215300082D
S315080040C0355300082D5900082D5900084953000892
S315080040D02D5900082D5900082D5900080000000028
S315080040E02D5900082D5900082D5900080000000018
S315080040F00000000000000000000000002D59000824
S31508004100000000002D5900085D5300082D590008CD
S315080041100000000000000000000000000000000091
S31508004120715300082D5900082D59000885530008B9
S315080041302D590008000000000000000000000000E3
S315080041400000000000000000000000002D590008D3
S315080041502D5900082D5900082D5900082D59000819
S315080041602D5900082D590008000000000000000025
S315080041700000000000000000000000000000000031
S31508004180000000002D590008000000000000000093
S309080041902D5900088F
S315080041A010B5054C237833B9044B13B10448AFF363
S315080041B000800123237010BDAC040020000000001D
S315080041C088DE000808B5034B1BB103490348AFF363
S315080041D0008008BD00000000B004002088DE00084A
S315080041E053B94AB9002908BF00281CBF4FF0FF3150
S315080041F04FF0FF3000F088B9ADF1080C6DE904CE38
S3150800420000F006F8DDF804E0DDE9022304B07047A3
S315080042102DE9F047089D8E4604468846002B4AD16C
S315080042208A42174662D9B2FA82F64EB1C6F120031F
S3150800423001FA06F820FA03F3B74043EA0808B4403F
S315080042404FEA174E1FFA87FCB8FBFEF1230C0EFB4C
S31508004250118843EA084301FB0CF29A4209D9FB1874
S3150800426001F1FF3080F0EA809A4240F2E780023995
S315080042703B449A1AA3B2B2FBFEF00EFB102243EAA5
S31508004280024300FB0CFC9C4509D9FB1800F1FF32E0
S3150800429080F0D6809C4540F2D3803B44023840EA01
S315080042A00140A3EB0C0300211DB1F3400022C5E930
S315080042B00032BDE8F0878B4205D90DB1C5E900018A
S315080042C000210846F5E7B3FA83F1002946D173457C
S315080042D002D3824200F20581841A6EEB03020120A2
S315080042E09046002DE5D0C5E90048E2E7002A00F02F
S315080042F09080B2FA82F6002E40F0A4808A1A030C47
S315080043004FEA174E80B2BCB20121B2FBFEFC0EFB8F
S315080043101C2243EA024304FB0CF29A4207D9FB1813
S315080043200CF1FF3802D29A4200F2E080C4469B1A8A
S31508004330B3FBFEF20EFB123340EA034302FB04F41E
S315080043409C4207D9FB1802F1FF3002D29C4200F2C8
S31508004350CA8002461B1B42EA0C40A5E7C1F12006AB
S315080043608B4022FA06F71F430EFA01F420FA06F3E9
S315080043702EFA06FE4FEA1749234300FA01F81FFAF8
S3150800438087FCBEFBF9F01C0C09FB10EE44EA0E4450
S3150800439000FB0CFEA64502FA01F209D93C1900F108
S315080043A0FF3A80F09C80A64540F2998002383C444A
S315080043B0A4EB0E041FFA83FEB4FBF9F309FB1344BE
S315080043C04EEA044403FB0CFCA44508D93C1903F146
S315080043D0FF3E80F08280A4457FD9023B3C4443EAF5
S315080043E00040A4EB0C04A0FB02EC64457346E146CE
S315080043F062D35FD05DB1B8EB030264EB090404FA3B
S3150800440006F622FA01F31E43CC40C5E900640021F2
S315080044104FE7B1FBF2FC010C41EA0E4180B240EADB
S3150800442001423B4638463C46B846BE462026B1FBC6
S31508004430F7F1A2EB080241EA0C4166E7014618E7E4
S3150800444010462CE7C6F120022EFA02F3B740B14017
S3150800445020FA02F24FEA174E0A43B3FBFEF8BCB243
S315080044600EFB1833110C41EA034108FB04F9B0406E
S3150800447089454FEA104380B23ED9791808F1FF3CC6
S3150800448001D289451FD8A1EB0901B1FBFEF909FB49
S3150800449004F80EFB191192B242EA0142424529D2AA
S315080044A0BA1809F1FF31C4D24245C2D2A9F10201B4
S315080044B03A44BEE7F0459DD2BEEB02036CEB070C0F
S315080044C00138E14696E7A7EB09094944A8F1020C29
S315080044D0B1FBFEF909FB04F8DBE773467FE75046B4
S315080044E066E70846FDE63B44023A33E7ACF1020CC0
S315080044F03B441CE749469CE7A1EB0901C446B1FBCE
S31508004500FEF909FB04F8C4E7704700BF80B584B01C
S3150800451000AF3B4600221A605A609A60DA60214B67
S31508004520214A1A601F4B4FF480325A601D4B0022F5
S315080045309A601C4B00221A611A4B00221A76194BF4
S31508004540002283F82020174B0022DA62154B174AFF
S315080045509A62144B0022DA60124B0122DA61114B7F
S31508004560002283F830200F4B01225A610D4801F0D2
S3150800457021FA0346002B01D000F0EAFC0A233B602F
S3150800458001237B600023BB603B461946054801F0C2
S31508004590A1FB0346002B01D000F0DAFC00BF103760
S315080045A0BD4680BDC8040020002001400100000F60
S315080045B080B58AB000AF786007F1140300221A604C
S315080045C05A609A60DA601A617B681B68174A9342D8
S315080045D027D100233B61164B5B6C154A43F4807365
S315080045E05364134B5B6C03F480733B613B69002394
S315080045F0FB600F4B1B6B0E4A43F0040313630C4B13
S315080046001B6B03F00403FB60FB680F237B6103232A
S31508004610BB610023FB6107F114031946054802F044
S3150800462069FA00BF2837BD4680BD00BF002001409B
S31508004630003802400008024080B582B000AF00236F
S315080046407B60104B1B6B0F4A43F4800313630D4BBF
S315080046501B6B03F480037B607B68002205213820EE
S3150800466001F00EFE382001F027FE002205213B202E
S3150800467001F006FE3B2001F01FFE00BF0837BD46CD
S3150800468080BD00BF0038024080B485B000AFF86036
S31508004690B9607A60FB68074A1A60BB68064A1A60FE
S315080046A07B6880221A6000BF1437BD465DF8047B1C
S315080046B0704700BF14050020B4050020B0B588B0C7
S315080046C000AF06F04DFF0A4B3C1D1D460FCD0FC42B
S315080046D095E8070084E807003B1D0021184608F006
S315080046E07CF80346034A136000BF2037BD46B0BDB9
S315080046F0ACDE00081005002080B582B000AF7860F7
S3150800470006F00CFE012008F0B4F800BFF8E7000038
S3150800471080B58AB000AF07F1140300221A605A6008
S315080047209A60DA601A6100233B61534B1B6B524A4D
S3150800473043F004031363504B1B6B03F004033B6104
S315080047403B690023FB604C4B1B6B4B4A43F08003D1
S315080047501363494B1B6B03F08003FB60FB68002364
S31508004760BB60454B1B6B444A43F001031363424B42
S315080047701B6B03F00103BB60BB6800237B603E4BE9
S315080047801B6B3D4A43F0020313633B4B1B6B03F061
S3150800479002037B607B6800233B60374B1B6B364A02
S315080047A043F008031363344B1B6B03F008033B60A9
S315080047B03B6800224FF47D51304802F037FB002257
S315080047C04FF2B0412E4802F031FB00224FF4184157
S315080047D02C4802F02BFB002204212B4802F026FB72
S315080047E04FF47D537B610123BB610023FB610023EA
S315080047F03B6207F114031946204802F07BF94FF291
S31508004800B0437B610123BB610023FB6100233B624C
S3150800481007F1140319461A4802F06CF94FF41843C5
S315080048207B610123BB610023FB6100233B6207F127
S3150800483014031946134802F05DF904237B6101232A
S31508004840BB610023FB6100233B6207F11403194691
S315080048500D4802F04FF940237B610023BB6100231A
S31508004860FB6107F114031946054802F043F900BF36
S315080048702837BD4680BD00BF003802400008024008
S315080048800004024000000240000C024080B58AB0D5
S3150800489000AF786007F1140300221A605A609A6024
S315080048A0DA601A617B681B68214A93423CD100236F
S315080048B03B61204B1B6B1F4A43F0020313631D4BDE
S315080048C01B6B03F002033B613B694FF440737B614A
S315080048D01223BB610023FB6103233B6204237B6233
S315080048E007F114031946144802F004F90023FB6083
S315080048F0104B1B6C0F4A43F4001313640D4B1B6CCF
S3150800490003F40013FB60FB68002205211F2001F059
S31508004910B7FC1F2001F0D0FC00220521202001F061
S31508004920AFFC202001F0C8FC00BF2837BD4680BD7B
S3150800493000540040003802400004024080B500AF31
S3150800494000F0F6FF00F016F8FFF7E2FEFFF774FE38
S31508004950FFF7DCFD00F002FB00F030FD00F0B8FDCB
S3150800496000F046FE07F04EFCFFF7A8FE07F02EFF04
S3150800497000BFFDE780B594B000AF07F120033022F1
S315080049800021184609F09EF907F10C0300221A6067
S315080049905A609A60DA601A610023BB60294B1B6C67
S315080049A0284A43F080531364264B1B6C03F080534C
S315080049B0BB60BB6800237B60234B1B6823F4404322
S315080049C0214A43F4004313601F4B1B6803F440431A
S315080049D07B607B6809233B624FF480337B6201234B
S315080049E07B630223BB634FF48003FB6306233B64AC
S315080049F054237B640223BB640423FB6407F120036E
S31508004A00184604F083F90346002B01D000F0A0FAFB
S31508004A100F23FB6002233B6100237B614FF4805325
S31508004A20BB610023FB6107F10C030221184604F061
S31508004A30E5FB0346002B01D000F08AFA00BF503789
S31508004A40BD4680BD003802400070004080B582B087
S31508004A5000AF78607B681B68044A934201D107F06F
S31508004A6031FC00BF0837BD4680BD00BF003001409D
S31508004A7080B582B000AF78607B681B68A54A934210
S31508004A8040F08D807B681B7F012B29D14FF4807104
S31508004A90A14802F0B3F90346012B10D19F4B1B68BE
S31508004AA05B6B9F4A128811464CF2503201FB02F2A8
S31508004AB0134400220521184606F0ECFC6BE0974BE0
S31508004AC01B685B6B964A128811464CF2503201FB02
S31508004AD002F2134401220521184606F0DBFC5AE0CF
S31508004AE07B681B7F022B29D14FF400718A4802F09C
S31508004AF085F90346012B10D1884B1B689B6B884AA6
S31508004B00128811464CF2503201FB02F2134400227D
S31508004B100321184606F0BEFC3DE0804B1B689B6BE4
S31508004B207F4A128811464CF2503201FB02F21344B6
S31508004B3001220321184606F0ADFC2CE07B681B7F9A
S31508004B40042B28D14FF48061734802F057F90346C5
S31508004B50012B10D1714B1B68DB6B714A1288114609
S31508004B604CF2503201FB02F213440022012118468E
S31508004B7006F090FC0FE0694B1B68DB6B684A1288ED
S31508004B8011464CF2503201FB02F213440122012174
S31508004B90184606F07FFC7B6800221A7752E17B688C
S31508004BA01B68B3F1804F40F0C1807B681B7F012BE7
S31508004BB028D10121584802F021F90346012B10D1CA
S31508004BC0584B1B685B6B584A128811464CF2503298
S31508004BD001FB02F2134400220021184606F05AFC93
S31508004BE030E1504B1B685B6B4F4A128811464CF2FA
S31508004BF0503201FB02F2134401220021184606F046
S31508004C0049FC1FE17B681B7F022B28D10221424801
S31508004C1002F0F4F80346012B10D1424B1B689B6B3C
S31508004C20414A128811464CF2503201FB02F21344F3
S31508004C3000220221184606F02DFC03E1394B1B68B9
S31508004C409B6B394A128811464CF2503201FB02F22C
S31508004C50134401220221184606F01CFCF2E07B6888
S31508004C601B7F042B28D104212B4802F0C7F80346E2
S31508004C70012B10D12B4B1B68DB6B2B4A1288114674
S31508004C804CF2503201FB02F213440022042118466A
S31508004C9006F000FCD6E0234B1B68DB6B224A128821
S31508004CA011464CF2503201FB02F213440122042150
S31508004CB0184606F0EFFBC5E07B681B7F082B40F023
S31508004CC0C1800821144802F099F80346012B10D137
S31508004CD0144B1B681B6C144A128811464CF250324E
S31508004CE001FB02F2134400220721184606F0D2FB04
S31508004CF0A8E00C4B1B681B6C0B4A128811464CF239
S31508004D00503201FB02F2134401220721184606F02D
S31508004D10C1FB97E000000140000002407009002036
S31508004D2008080020B80900200A0800207B681B68CC
S31508004D30464A934240F086807B681B7F022B28D127
S31508004D408021434802F05AF80346012B10D1414B03
S31508004D501B689B6B404A128811464CF2503201FB85
S31508004D6002F2134400220621184606F093FB69E076
S31508004D70384B1B689B6B384A128811464CF25032E6
S31508004D8001FB02F2134401220621184606F082FBB3
S31508004D9058E07B681B7F042B28D101212F4802F09D
S31508004DA02DF80346012B10D12A4B1B68DB6B2A4AC8
S31508004DB0128811464CF2503201FB02F213440022CB
S31508004DC00821184606F066FB3CE0224B1B68DB6BA5
S31508004DD0214A128811464CF2503201FB02F2134462
S31508004DE001220821184606F055FB2BE07B681B7F3D
S31508004DF0082B27D10221194802F000F80346012B97
S31508004E0010D1144B1B681B6C134A128811464CF2BE
S31508004E10503201FB02F2134400220921184606F01B
S31508004E2039FB0FE00B4B1B681B6C0B4A12881146AB
S31508004E304CF2503201FB02F21344012209211846B2
S31508004E4006F028FB00BF0837BD4680BD00040040B9
S31508004E5000080240000A00200C0800200004024056
S31508004E6080B582B000AF7860054802F038FA03468C
S31508004E70002B01D000F06CF800BF0837BD4680BD96
S31508004E80B407002080B582B000AF78600B46FB708F
S31508004E9013463B80FB781946786806F0F7F900BF99
S31508004EA00837BD4680BD000080B582B000AF786087
S31508004EB07B681B68204A934201D100F05BFD7B6842
S31508004EC01B681E4A93420DD11D4B1B8801339AB2AB
S31508004ED01B4B1A801A4B1B88272B28D9184B0022E4
S31508004EE01A8024E07B681B68B3F1804F0DD1154BFF
S31508004EF01B8801339AB2134B1A80124B1B88272B37
S31508004F0015D9104B00221A8011E07B681B680E4ADF
S31508004F1093420CD10D4B1B8801339AB20B4B1A8066
S31508004F200A4B1B88272B02D9084B00221A8000BF80
S31508004F300837BD4680BD00BF000C00400000014098
S31508004F40080800200A080020000400400C08002079
S31508004F5080B400AF72B600BF00BFFDE780B500AFF2
S31508004F60154B164A1A60144B00225A60124B00223F
S31508004F709A60114B0022DA600F4B00221A610E4B21
S31508004F8000225A610C4B00229A610B4B00221A62CE
S31508004F90094B00225A62084B00229A62064B0A22E3
S31508004FA0DA62054804F028FB0346002B01D0FFF718
S31508004FB0CFFF00BF80BD00BF1008002000300140B1
S31508004FC080B58AB000AF786007F1140300221A6032
S31508004FD05A609A60DA601A617B681B68534A934282
S31508004FE040F0A08000233B61514B5B6C504A43F470
S31508004FF0805353644E4B5B6C03F480533B613B69AF
S315080050000023FB604A4B1B6B494A43F001031363B9
S31508005010474B1B6B03F00103FB60FB6810237B61A6
S315080050200223BB610123FB6103233B6205237B62E9
S3150800503007F1140319463F4801F05CFDE0237B6144
S315080050400223BB610023FB6103233B6205237B62CA
S3150800505007F114031946374801F04CFD364B374A19
S315080050601A60354B4FF0C0625A60334B00229A6083
S31508005070314B0022DA60304B4FF480621A612E4BB6
S3150800508000225A612C4B00229A612B4B0022DA61CE
S31508005090294B00221A62284B00225A62264801F040
S315080050A019F90346002B01D0FFF752FF7B68224A05
S315080050B0DA64214A7B689363214B224A1A60204BA3
S315080050C04FF0C0625A601E4B40229A601C4B002269
S315080050D0DA601B4B4FF480621A61194B00225A6141
S315080050E0174B00229A61164B0022DA61144B0022F4
S315080050F01A62134B00225A62114801F0EBF8034674
S31508005100002B01D0FFF724FF7B680D4A9A640C4AEE
S315080051107B68936300220521232001F0B1F8232040
S3150800512001F0CAF800BF2837BD4680BD00300140EF
S31508005130003802400000024068080020106402405F
S31508005140C80800205864024080B582B000AF00232A
S315080051507B60124B5B6C114A43F4804353640F4BDC
S315080051605B6C03F480437B607B6800233B600B4BDE
S315080051701B6C0A4A43F080531364084B1B6C03F0FC
S3150800518080533B603B6800220F216FF0010001F05D
S3150800519077F800BF0837BD4680BD00BF003802401B
S315080051A080B58EB000AF78600023FB620023BB6237
S315080051B00023FB60334B1B6C324A43F0080313642D
S315080051C0304B1B6C03F00803FB60FB6807F1100209
S315080051D007F114031146184604F0DCF93B6AFB6232
S315080051E0FB6A002B03D104F0C1F9786304E004F0EC
S315080051F0BDF903465B007B637B6B234AA2FB032353
S315080052009B0C013BBB62214B214A1A601F4B40F2A3
S31508005210E732DA601D4ABB6A53601C4B00221A61EA
S315080052201A4B00229A60194B00229A61174804F01B
S3150800523021FF034687F8333097F83330002B1BD10C
S31508005240124804F067FF034687F8333097F833307F
S31508005250002B11D1322001F02FF87B680F2B08D8CC
S3150800526000227968322001F00BF80A4A7B6813603D
S3150800527002E0012387F8333097F833301846383779
S31508005280BD4680BD0038024083DE1B432809002046
S31508005290000C00400400002080B400AF00BFFDE70A
S315080052A080B400AF00BFFDE780B400AF00BFFDE7E4
S315080052B080B400AF00BFFDE780B400AF00BFFDE7D4
S315080052C080B400AF00BFBD465DF8047B70470000A0
S315080052D080B500AF024805F0F3F800BF80BD00BFF7
S315080052E07009002080B500AF024805F0E9F800BF54
S315080052F080BD00BF7009002080B500AF024805F0E8
S31508005300DFF800BF80BD00BFB809002080B500AF38
S31508005310024805F0D5F800BF80BD00BF000A00208E
S3150800532080B500AF024802F010F800BF80BD00BF8C
S31508005330B407002080B500AF024802F077F900BF35
S3150800534080BD00BFB407002080B500AF024804F056
S315080053503BFB00BF80BD00BF1008002080B500AF32
S31508005360024805F0ADF800BF80BD00BF280900203F
S3150800537080B500AF024801F045F900BF80BD00BF07
S315080053806808002080B500AF024801F03BF900BF6D
S3150800539080BD00BFC808002080B400AF064BD3F814
S315080053A08830054A43F47003C2F8883000BFBD460A
S315080053B05DF8047B704700BF00ED00E080B58AB059
S315080053C000AF07F1180300221A605A609A60DA6083
S315080053D007F1100300221A605A603B4600221A6041
S315080053E05A609A60DA60384B384A1A60364B00229F
S315080053F05A60354B00229A60334B4FF6FF72DA60DB
S31508005400314B00221A61304B00225A612E4B002282
S315080054109A612D4804F02EFE0346002B01D0FFF7B3
S3150800542097FD4FF48053BB6107F1180319462648C8
S3150800543005F0D2F90346002B01D0FFF789FD224873
S3150800544004F0CAFE0346002B01D0FFF781FD0023B6
S315080054503B6100237B6107F1100319461A4805F0E2
S3150800546005FD0346002B01D0FFF772FD00233B60C4
S3150800547001237B600023BB600023FB603B460022C0
S315080054801946114805F00CF90346002B01D0FFF721
S315080054905FFD3B46042219460B4805F001F9034611
S315080054A0002B01D0FFF754FD3B4608221946064853
S315080054B005F0F6F80346002B01D0FFF749FD00BFBB
S315080054C02837BD4680BD00BF700900200000014096
S315080054D080B58AB000AF07F1180300221A605A6037
S315080054E09A60DA6007F1100300221A605A603B4698
S315080054F000221A605A609A60DA603C4B4FF080428C
S315080055001A603A4B00225A60384B00229A60374B91
S315080055104FF6FF72DA60354B00221A61334B0022D0
S315080055209A61324804F0A6FD0346002B01D0FFF726
S315080055300FFD4FF48053BB6107F1180319462B483A
S3150800554005F04AF90346002B01D0FFF701FD27486D
S3150800555004F042FE0346002B01D0FFF7F9FC0023B6
S315080055603B6100237B6107F1100319461F4805F0CC
S315080055707DFC0346002B01D0FFF7EAFC00233B60C5
S3150800558001237B600023BB600023FB603B460022AF
S315080055901946164805F084F80346002B01D0FFF794
S315080055A0D7FC3B4604221946104805F079F803460D
S315080055B0002B01D0FFF7CCFC3B46082219460B48C6
S315080055C005F06EF80346002B01D0FFF7C1FC3B46F9
S315080055D00C221946054805F063F80346002B01D04E
S315080055E0FFF7B6FC00BF2837BD4680BDB8090020C6
S315080055F080B58AB000AF07F1180300221A605A6016
S315080056009A60DA6007F1100300221A605A603B4676
S3150800561000221A605A609A60DA60364B364A1A6077
S31508005620344B00225A60334B00229A60314B4FF6B6
S31508005630FF72DA602F4B00221A612E4B00229A6104
S315080056402C4804F017FD0346002B01D0FFF780FC19
S315080056504FF48053BB6107F118031946254805F036
S31508005660BBF80346002B01D0FFF772FC214804F073
S31508005670B3FD0346002B01D0FFF76AFC00233B610C
S3150800568000237B6107F1100319461A4805F0EEFB63
S315080056900346002B01D0FFF75BFC00233B60012388
S315080056A07B600023BB600023FB603B46042219464F
S315080056B0104804F0F5FF0346002B01D0FFF748FC1D
S315080056C03B46082219460B4804F0EAFF0346002B1E
S315080056D001D0FFF73DFC3B460C221946054804F06D
S315080056E0DFFF0346002B01D0FFF732FC00BF283747
S315080056F0BD4680BD000A00200004004080B58EB07B
S3150800570000AF786007F1240300221A605A609A6095
S31508005710DA601A617B681B686A4A93423DD10023A6
S315080057203B62694B5B6C684A43F001035364664B02
S315080057305B6C03F001033B623B6A0023FB61624B2F
S315080057401B6B614A43F0010313635F4B1B6B03F04A
S315080057500103FB61FB694FF4E0637B620223BB62D2
S315080057600023FB6200233B6301237B6307F12403C9
S315080057701946564801F0BEF900220521192000F005
S315080057807FFD192000F098FD002205211B2000F05E
S3150800579077FD1B2000F090FD90E07B681B68B3F155
S315080057A0804F34D10023BB61474B1B6C464A43F0FC
S315080057B001031364444B1B6C03F00103BB61BB6913
S315080057C000237B61404B1B6B3F4A43F00103136385
S315080057D03D4B1B6B03F001037B617B690F237B62E7
S315080057E00223BB620023FB6200233B6301237B6326
S315080057F007F124031946354801F07CF900220521F2
S315080058001C2000F03DFD1C2000F056FD56E07B688C
S315080058101B682F4A934251D100233B612A4B1B6CCC
S31508005820294A43F002031364274B1B6C03F0020357
S315080058303B613B690023FB60234B1B6B224A43F009
S3150800584002031363204B1B6B03F00203FB60FB6828
S315080058500023BB601C4B1B6B1B4A43F004031363FA
S31508005860194B1B6B03F00403BB60BB6803237B6205
S315080058700223BB620023FB6200233B6302237B6394
S3150800588007F124031946134801F034F980237B6293
S315080058900223BB620023FB6200233B6302237B6374
S315080058A007F1240319460C4801F024F900220521C2
S315080058B01D2000F0E5FC1D2000F0FEFC00BF383777
S315080058C0BD4680BD0000014000380240000002408D
S315080058D0000400400004024000080240DFF834D00B
S315080058E0002103E00C4B5B58435004310B480C4B2A
S315080058F042189A42F6D30B4A02E0002342F8043BC8
S31508005900094B9A42F9D3FFF747FD08F041FAFFF72A
S3150800591015F870470000012034DF00080000002059
S31508005920AC040020AC040020304B0020FEE7000049
S3150800593080B500AF0E4B1B680D4A43F40073136025
S315080059400B4B1B680A4A43F480631360084B1B68B9
S31508005950074A43F480731360032000F086FC0F2087
S31508005960FFF71EFCFFF7F0FB0023184680BD00BFBB
S31508005970003C024080B400AF064B1B781A46064B23
S315080059801B681344044A136000BFBD465DF8047BD8
S31508005990704700BF08000020480A002080B400AF06
S315080059A0034B1B681846BD465DF8047B704700BF6D
S315080059B0480A002080B584B000AF78600023FB73E6
S315080059C07B68002B01D1012333E07B681B6C002B1D
S315080059D009D17868FEF7ECFD7B6800225A647B687B
S315080059E0002283F83C207B681B6C03F01003002B15
S315080059F018D17B681B6C23F4885323F0020343F009
S31508005A0002027B681A64786800F086FA7B680022CE
S31508005A105A647B681B6C23F0030343F001027B681E
S31508005A201A6401E00123FB737B68002283F83C209B
S31508005A30FB7B18461037BD4680BD000080B485B094
S31508005A4000AF78600023BB607B6893F83C30012B7D
S31508005A5001D1022397E07B68012283F83C207B680A
S31508005A601B689B6803F00103012B18D07B681B6831
S31508005A709A687B681B6842F001029A60454B1B686E
S31508005A80454AA2FB03239A0C13465B001344BB60EA
S31508005A9002E0BB68013BBB60BB68002BF9D17B68A1
S31508005AA01B689B6803F00103012B5FD17B681B6CA5
S31508005AB023F4E06323F0010343F480727B681A64DD
S31508005AC07B681B685B6803F48063002B07D07B68E0
S31508005AD01B6C23F4405343F480527B681A647B683A
S31508005AE01B6C03F48053B3F5805F06D17B685B6C4F
S31508005AF023F006027B685A6402E07B6800225A6437
S31508005B007B68002283F83C20244BFB607B681B687B
S31508005B106FF022021A60FB685B6803F01F03002B14
S31508005B200FD17B681B689B6803F04053002B29D173
S31508005B307B681B689A687B681B6842F080429A609B
S31508005B4020E07B681B68164A93421BD17B681B685A
S31508005B509B6803F04053002B14D17B681B689A6836
S31508005B607B681B6842F080429A600BE07B681B6C7E
S31508005B7043F010027B681A647B685B6C43F0010291
S31508005B807B685A64002318461437BD465DF8047BC3
S31508005B90704700BF0000002083DE1B43002301403E
S31508005BA00020014080B584B000AF786039600023DA
S31508005BB0FB607B681B689B6803F48063B3F5806FA2
S31508005BC013D17B681B689B6803F48073B3F5807FE9
S31508005BD00BD17B681B6C43F020027B681A647B68D8
S31508005BE0002283F83C20012363E0FFF7D7FEF86024
S31508005BF021E03B68B3F1FF3F1DD03B68002B07D07F
S31508005C00FFF7CCFE0246FB68D31A3A689A4212D2CC
S31508005C107B681B681B6803F00203022B0BD07B68AA
S31508005C201B6C43F004027B681A647B68002283F8C5
S31508005C303C2003233DE07B681B681B6803F00203D6
S31508005C40022BD6D17B681B686FF012021A607B683C
S31508005C501B6C43F400727B681A647B681B689B683C
S31508005C6003F04053002B23D17B681B7E002B1FD1EA
S31508005C707B681B68DB6A03F47003002B06D07B681D
S31508005C801B689B6803F48063002B11D17B681B6C2F
S31508005C9023F480727B681A647B681B6C03F4805358
S31508005CA0002B05D17B681B6C43F001027B681A64E4
S31508005CB0002318461037BD4680BD80B483B000AFB8
S31508005CC078607B681B68DB6C18460C37BD465DF848
S31508005CD0047B704780B485B000AF786039600023D4
S31508005CE0BB607B6893F83C30012B01D1022305E1A8
S31508005CF07B68012283F83C203B681B68092B25D961
S31508005D007B681B68D9683B681B689BB21A461346B2
S31508005D105B0013441E3B072202FA03F3DA437B684F
S31508005D201B680A40DA607B681B68D9683B689A6812
S31508005D303B681B689BB2184603465B0003441E3B40
S31508005D409A407B681B680A43DA6022E07B681B6816
S31508005D5019693B681B689BB21A4613465B001344D5
S31508005D60072202FA03F3DA437B681B680A401A61C2
S31508005D707B681B6819693B689A683B681B689BB215
S31508005D80184603465B0003449A407B681B680A432F
S31508005D901A613B685B68062B24D87B681B68596BBD
S31508005DA03B685A6813469B001344053B1F2202FAB8
S31508005DB003F3DA437B681B680A405A637B681B68EF
S31508005DC0596B3B681B689BB218463B685A68134672
S31508005DD09B001344053B00FA03F27B681B680A43E1
S31508005DE05A634CE03B685B680C2B24D87B681B68BD
S31508005DF0196B3B685A6813469B001344233B1F22C2
S31508005E0002FA03F3DA437B681B680A401A637B6865
S31508005E101B68196B3B681B689BB218463B685A6837
S31508005E2013469B001344233B00FA03F27B681B6866
S31508005E300A431A6323E07B681B68D96A3B685A6879
S31508005E4013469B001344413B1F2202FA03F3DA432D
S31508005E507B681B680A40DA627B681B68D96A3B68FC
S31508005E601B689BB218463B685A6813469B00134446
S31508005E70413B00FA03F27B681B680A43DA62224B4D
S31508005E80FB607B681B68214A934209D13B681B6803
S31508005E90122B05D1FB685B6843F48002FB685A60E5
S31508005EA07B681B68194A934223D13B681B68102BF1
S31508005EB003D03B681B68112B1BD1FB685B6843F456
S31508005EC00002FB685A603B681B68102B11D1104B07
S31508005ED01B68104AA2FB03239A0C13469B00134423
S31508005EE05B00BB6002E0BB68013BBB60BB68002B84
S31508005EF0F9D17B68002283F83C2000231846143722
S31508005F00BD465DF8047B7047002301400020014030
S31508005F100000002083DE1B4380B485B000AF7860A4
S31508005F20794BFB60FB685B6823F44032FB685A6078
S31508005F30FB685A687B685B681A43FB685A607B682B
S31508005F401B685A687B681B6822F480725A607B68F3
S31508005F501B6859687B681B691A027B681B680A43B9
S31508005F605A607B681B685A687B681B6822F0407217
S31508005F705A607B681B6859687B689A687B681B68E7
S31508005F800A435A607B681B689A687B681B6822F418
S31508005F9000629A607B681B6899687B68DA687B6828
S31508005FA01B680A439A607B689B6A584A934222D0C8
S31508005FB07B681B689A687B681B6822F070629A6027
S31508005FC07B681B6899687B689A6A7B681B680A43C2
S31508005FD09A607B681B689A687B681B6822F0405247
S31508005FE09A607B681B6899687B68DA6A7B681B68B5
S31508005FF00A439A600FE07B681B689A687B681B688F
S3150800600022F070629A607B681B689A687B681B68D6
S3150800601022F040529A607B681B689A687B681B6806
S3150800602022F002029A607B681B6899687B681B7E6F
S315080060305A007B681B680A439A607B6893F820308D
S31508006040002B1BD07B681B685A687B681B6842F468
S3150800605000625A607B681B685A687B681B6822F472
S3150800606060425A607B681B6859687B685B6A013BBB
S315080060705A037B681B680A435A6007E07B681B68FB
S315080060805A687B681B6822F400625A607B681B6842
S31508006090DA6A7B681B6822F47002DA627B681B681E
S315080060A0D96A7B68DB69013B1A057B681B680A436A
S315080060B0DA627B681B689A687B681B6822F4007240
S315080060C09A607B681B6899687B6893F830305A0237
S315080060D07B681B680A439A607B681B689A687B68BA
S315080060E01B6822F480629A607B681B6899687B68E3
S315080060F05B699A027B681B680A439A6000BF14377B
S31508006100BD465DF8047B7047002301400100000F7F
S3150800611080B485B000AF78607B6803F00703FB6046
S315080061200C4BDB68BB60BA684FF6FF031340BB60D5
S31508006130FB681A02BB68134343F0BF6343F400339A
S31508006140BB60044ABB68D36000BF1437BD465DF820
S31508006150047B704700ED00E080B400AF044BDB68B9
S315080061601B0A03F007031846BD465DF8047B704713
S3150800617000ED00E080B483B000AF0346FB7197F9E9
S315080061800730002B0BDBFB7903F01F02074997F951
S3150800619007305B09012000FA02F241F8232000BF0C
S315080061A00C37BD465DF8047B704700BF00E100E090
S315080061B080B483B000AF03463960FB7197F90730A6
S315080061C0002B0ADB3B68DAB20C4997F90730120153
S315080061D0D2B20B4483F800230AE03B68DAB20849D6
S315080061E0FB7903F00F03043B1201D2B20B441A7673
S315080061F000BF0C37BD465DF8047B704700E100E040
S3150800620000ED00E080B489B000AFF860B9607A604C
S31508006210FB6803F00703FB61FB69C3F10703042B63
S3150800622028BF0423BB61FB690433062B02D9FB692B
S31508006230033B00E000237B614FF0FF32BB6902FAA3
S3150800624003F3DA43BB681A407B699A404FF0FF3183
S315080062507B6901FA03F3D9437B680B40134318465D
S315080062602437BD465DF8047B704780B582B000AF21
S3150800627078607868FFF74CFF00BF0837BD4680BDD9
S3150800628080B586B000AF0346B9607A60FB73002319
S315080062907B61FFF761FF78617A68B9687869FFF70B
S315080062A0B1FF024697F90F3011461846FFF780FFEF
S315080062B000BF1837BD4680BD80B582B000AF034623
S315080062C0FB7197F907301846FFF754FF00BF0837E8
S315080062D0BD4680BD80B586B000AF786000237B617F
S315080062E0FFF75CFB38617B68002B01D1012399E03D
S315080062F07B68022283F835207B68002283F83420E5
S315080063007B681B681A687B681B6822F001021A60A2
S315080063100FE0FFF743FB02463B69D31A052B08D962
S315080063207B6820225A657B68032283F8352003237D
S3150800633078E07B681B681B6803F00103002BE8D133
S315080063407B681B681B687B617A69384B13407B61E5
S315080063507B685A687B689B681A437B68DB681A43C4
S315080063607B681B691A437B685B691A437B689B6970
S315080063701A437B68DB691A437B681B6A13437A698D
S3150800638013437B617B685B6A042B07D17B68DA6AF7
S315080063907B681B6B13437A6913437B617B681B68B5
S315080063A07A691A607B681B685B697B617B6923F085
S315080063B007037B617B685B6A7A6913437B617B6849
S315080063C05B6A042B17D17B689B6A7A6913437B61E6
S315080063D07B68DB6A002B0ED0786800F00FFB03465B
S315080063E0002B08D07B6840225A657B68012283F817
S315080063F03520012316E07B681B687A695A6178683C
S3150800640000F0C6FA0346FB607B68DB6D3F229A40C4
S31508006410FB689A607B6800225A657B68012283F8CC
S315080064203520002318461837BD4680BD3F8010F03A
S3150800643080B586B000AFF860B9607A603B6000232B
S31508006440FB75FB689B6D3B61FB6893F83430012B49
S3150800645001D1022340E0FB68012283F83420FB685F
S3150800646093F83530DBB2012B2FD1FB68022283F873
S315080064703520FB6800225A653B687A68B968F8686F
S3150800648000F058FAFB68DB6D3F229A403B699A6038
S31508006490FB681B681A68FB681B6842F016021A60DC
S315080064A0FB681B6C002B07D0FB681B681A68FB6827
S315080064B01B6842F008021A60FB681B681A68FB68CA
S315080064C01B6842F001021A6005E0FB68002283F8A7
S315080064D034200223FB75FB7D18461837BD4680BD60
S315080064E080B584B000AF78607B689B6DFB60FFF772
S315080064F055FAB8607B6893F83530DBB2022B08D0C2
S315080065007B6880225A657B68002283F83420012341
S3150800651052E07B681B681A687B681B6822F01602C3
S315080065201A607B681B685A697B681B6822F08002C0
S315080065305A617B681B6C002B03D17B689B6C002B14
S3150800654007D07B681B681A687B681B6822F00802FC
S315080065501A607B681B681A687B681B6822F0010250
S315080065601A6013E0FFF71AFA0246BB68D31A052B1E
S315080065700CD97B6820225A657B68032283F835206C
S315080065807B68002283F83420032315E07B681B68A8
S315080065901B6803F00103002BE4D17B68DB6D3F2207
S315080065A09A40FB689A607B68012283F835207B68ED
S315080065B0002283F83420002318461037BD4680BDD4
S315080065C080B483B000AF78607B6893F83530DBB26F
S315080065D0022B04D07B6880225A6501230CE07B6875
S315080065E0052283F835207B681B681A687B681B6858
S315080065F022F001021A60002318460C37BD465DF8E2
S31508006600047B704780B586B000AF78600023BB6016
S315080066108E4B1B688E4AA2FB03239B0A7B617B6811
S315080066209B6D3B613B691B68FB607B68DB6D0822E1
S315080066309A40FB681340002B1AD07B681B681B68BE
S3150800664003F00403002B13D07B681B681A687B6869
S315080066501B6822F004021A607B68DB6D08229A40E8
S315080066603B699A607B685B6D43F001027B685A65FB
S315080066707B68DB6D01229A40FB681340002B12D021
S315080066807B681B685B6903F08003002B0BD07B6873
S31508006690DB6D01229A403B699A607B685B6D43F02B
S315080066A002027B685A657B68DB6D04229A40FB68A8
S315080066B01340002B12D07B681B681B6803F002038B
S315080066C0002B0BD07B68DB6D04229A403B699A60ED
S315080066D07B685B6D43F004027B685A657B68DB6DFB
S315080066E010229A40FB681340002B43D07B681B6836
S315080066F01B6803F00803002B3CD07B68DB6D102277
S315080067009A403B699A607B681B681B6803F4802380
S31508006710002B18D07B681B681B6803F40023002B2A
S3150800672008D17B681B6C002B24D07B681B6C7868AF
S3150800673098471FE07B689B6C002B1BD07B689B6C83
S315080067407868984716E07B681B681B6803F48073B3
S31508006750002B07D17B681B681A687B681B6822F0C8
S3150800676008021A607B681B6C002B03D07B681B6CC5
S31508006770786898477B68DB6D20229A40FB6813404F
S31508006780002B00F08F807B681B681B6803F01003E2
S31508006790002B00F087807B68DB6D20229A403B69DE
S315080067A09A607B6893F83530DBB2052B36D17B6867
S315080067B01B681A687B681B6822F016021A607B68D9
S315080067C01B685A697B681B6822F080025A617B68DD
S315080067D01B6C002B03D17B689B6C002B07D07B6856
S315080067E01B681A687B681B6822F008021A607B68B7
S315080067F0DB6D3F229A403B699A607B68012283F8E9
S3150800680035207B68002283F834207B681B6D002BBB
S315080068107ED07B681B6D7868984779E07B681B6833
S315080068201B6803F48023002B1DD07B681B681B683C
S3150800683003F40023002B0DD17B685B6C002B31D051
S315080068407B685B6C786898472CE000BF00000020E6
S31508006850B5814E1B7B68DB6B002B23D07B68DB6B1B
S31508006860786898471EE07B681B681B6803F480738A
S31508006870002B0FD17B681B681A687B681B6822F09F
S3150800688010021A607B68012283F835207B68002293
S3150800689083F834207B68DB6B002B03D07B68DB6BCB
S315080068A0786898477B685B6D002B32D07B685B6D98
S315080068B003F00103002B22D07B68052283F83520DC
S315080068C07B681B681A687B681B6822F001021A60DD
S315080068D0BB680133BB607A699A4207D37B681B6839
S315080068E01B6803F00103002BF2D100E000BF7B68B0
S315080068F0012283F835207B68002283F834207B68E0
S31508006900DB6C002B05D07B68DB6C7868984700E069
S3150800691000BF1837BD4680BD80B483B000AF78602D
S315080069207B6893F83530DBB218460C37BD465DF800
S31508006930047B704780B485B000AFF860B9607A60B0
S315080069403B60FB681B681A68FB681B6822F4802298
S315080069501A60FB681B683A685A60FB689B68402B9C
S3150800696008D1FB681B687A689A60FB681B68BA6876
S31508006970DA6007E0FB681B68BA689A60FB681B6800
S315080069807A68DA6000BF1437BD465DF8047B704745
S3150800699080B485B000AF78607B681B68DBB2103BBB
S315080069A0144AA2FB03231B09FB60134AFB68134422
S315080069B01B781A467B68DA65FB68032B09D97B685E
S315080069C01B6823F47F7323F003031A1D7B689A65FB
S315080069D007E07B681B6823F47F7323F003037A6858
S315080069E093657B689B6D18461437BD465DF8047B36
S315080069F0704700BFABAAAAAA1CDF000880B485B0FE
S31508006A0000AF78600023FB737B689B6ABB607B687A
S31508006A109B69002B1FD1BB68032B56D801A252F8DD
S31508006A2023F000BF356A0008476A0008356A00087F
S31508006A30CB6A00087B68DB6A03F08073002B46D0BC
S31508006A400123FB7343E07B68DB6AB3F1C07F40D167
S31508006A500123FB733DE07B689B69B3F5005F21D199
S31508006A60BB68032B37D801A252F823F07D6A0008C9
S31508006A70836A00087D6A0008956A00080123FB738B
S31508006A8030E07B68DB6A03F08073002B25D0012396
S31508006A90FB7322E07B68DB6AB3F1C07F1FD1012359
S31508006AA0FB731CE0BB68022B03D9BB68032B03D01E
S31508006AB018E00123FB7315E07B68DB6A03F080733B
S31508006AC0002B0ED00123FB730BE000BF0AE000BFCA
S31508006AD008E000BF06E000BF04E000BF02E000BF18
S31508006AE000E000BFFB7B18461437BD465DF8047B03
S31508006AF0704700BF80B489B000AF78603960002362
S31508006B007B6100233B610023BB610023FB6159E1E4
S31508006B100122FB6902FA03F37B613B681B687A6909
S31508006B2013403B613A697B699A4240F048813B6869
S31508006B305B6803F00303012B05D03B685B6803F031
S31508006B400303022B30D17B689B68BB61FB695B0042
S31508006B50032202FA03F3DB43BA691340BB613B68BD
S31508006B60DA68FB695B0002FA03F3BA691343BB618F
S31508006B707B68BA699A607B685B68BB610122FB69BE
S31508006B8002FA03F3DB43BA691340BB613B685B68EF
S31508006B901B0903F00102FB6902FA03F3BA691343FE
S31508006BA0BB617B68BA695A603B685B6803F003039C
S31508006BB0032B17D07B68DB68BB61FB695B0003228C
S31508006BC002FA03F3DB43BA691340BB613B689A6870
S31508006BD0FB695B0002FA03F3BA691343BB617B687E
S31508006BE0BA69DA603B685B6803F00303022B23D1BA
S31508006BF0FB69DA087B68083253F82230BB61FB6907
S31508006C0003F007039B000F2202FA03F3DB43BA697A
S31508006C101340BB613B681A69FB6903F007039B00D5
S31508006C2002FA03F3BA691343BB61FB69DA087B68A6
S31508006C300832B96943F822107B681B68BB61FB6997
S31508006C405B00032202FA03F3DB43BA691340BB6114
S31508006C503B685B6803F00302FB695B0002FA03F317
S31508006C60BA691343BB617B68BA691A603B685B689B
S31508006C7003F44033002B00F0A2800023FB60574B3F
S31508006C805B6C564A43F480435364544B5B6C03F481
S31508006C908043FB60FB68524AFB699B08023352F843
S31508006CA02330BB61FB6903F003039B000F2202FA42
S31508006CB003F3DB43BA691340BB617B68494A9342D5
S31508006CC019D07B68484A934213D07B68474A934257
S31508006CD00DD07B68464A934207D07B68454A934263
S31508006CE001D1042308E0072306E0032304E0022376
S31508006CF002E0012300E00023FA6902F00302920091
S31508006D009340BA691343BB613549FB699B08023353
S31508006D10BA6941F82320384B9B68BB613B69DB4362
S31508006D20BA691340BB613B685B6803F48013002BA8
S31508006D3003D0BA693B691343BB612F4ABB699360A9
S31508006D402D4BDB68BB613B69DB43BA691340BB610A
S31508006D503B685B6803F40013002B03D0BA693B69F0
S31508006D601343BB61244ABB69D360234B5B68BB6191
S31508006D703B69DB43BA691340BB613B685B6803F454
S31508006D800033002B03D0BA693B691343BB611A4A27
S31508006D90BB695360184B1B68BB613B69DB43BA6927
S31508006DA01340BB613B685B6803F48033002B03D058
S31508006DB0BA693B691343BB610F4ABB691360FB6938
S31508006DC00133FB61FB690F2B7FF6A2AE00BF00BF44
S31508006DD02437BD465DF8047B704700BF0038024083
S31508006DE0003801400000024000040240000802404A
S31508006DF0000C024000100240003C014080B485B0FF
S31508006E0000AF78600B467B807B681A697B881340E5
S31508006E10002B02D00123FB7301E00023FB73FB7BED
S31508006E2018461437BD465DF8047B704780B483B0B6
S31508006E3000AF78600B467B8013467B707B78002B0F
S31508006E4003D07A887B689A6103E07B881A047B689A
S31508006E509A6100BF0C37BD465DF8047B7047000099
S31508006E6080B584B000AF78607B68002B01D1012320
S31508006E702BE17B6893F83D30DBB2002B06D17B68AB
S31508006E80002283F83C207868FDF700FD7B68242201
S31508006E9083F83D207B681B681A687B681B6822F0AC
S31508006EA001021A607B681B681A687B681B6842F4D3
S31508006EB000421A607B681B681A687B681B6822F4A4
S31508006EC000421A6002F052FBF8607B685B68814AF0
S31508006ED0934207D8FB68804A934294BF0123002354
S31508006EE0DBB206E0FB687D4A934294BF0123002388
S31508006EF0DBB2002B01D00123E7E0FB68784AA2FB4E
S31508006F0003239B0CBB607B681B685B6823F03F010F
S31508006F107B681B68BA680A435A607B681B681B6AE9
S31508006F2023F03F017B685B686A4A934202D8BB68D4
S31508006F30013309E0BB684FF4967202FB03F3694A12
S31508006F40A2FB03239B0901337A6812680B43136279
S31508006F507B681B68DB6923F44F4222F0FF027B68DB
S31508006F605B685C498B4219D8FB68591E7B685B686D
S31508006F705B00B1FBF3F3591C40F6FC730B40002B86
S31508006F800AD0FB68591E7B685B685B00B1FBF3F3AC
S31508006F900133C3F30B0351E004234FE07B689B687E
S31508006FA0002B11D1FB68581E7B6859680B465B009D
S31508006FB00B44B0FBF3F30133C3F30B03002B0CBFF5
S31508006FC001230023DBB212E0FB68581E7B68596870
S31508006FD00B469B000B4499000B44B0FBF3F30133BB
S31508006FE0C3F30B03002B0CBF01230023DBB2002BDA
S31508006FF001D0012322E07B689B68002B0ED1FB6839
S31508007000581E7B6859680B465B000B44B0FBF3F3CC
S315080070100133C3F30B0343F400430FE0FB68581E28
S315080070207B6859680B469B000B4499000B44B0FBE0
S31508007030F3F30133C3F30B0343F440437968096858
S315080070401343CB617B681B681B6823F0C0017B6810
S31508007050DA697B681B6A1A437B681B680A431A60ED
S315080070607B681B689B6823F4034323F0FF037A6855
S3150800707011697A68D26811437A6812680B4393607B
S315080070807B681B68DB6823F0FF017B685A697B68AD
S315080070909B691A437B681B680A43DA607B681B682E
S315080070A01A687B681B6842F001021A607B68002236
S315080070B01A647B68202283F83D207B6800221A63C5
S315080070C07B68002283F83E20002318461037BD4609
S315080070D080BD00BFA08601007F841E00FF083D001A
S315080070E083DE1B43D34D621080B483B000AF786053
S315080070F07B681B685B6903F08003802B03D17B6880
S315080071001B6800221A6100BF0C37BD465DF8047B78
S31508007110704780B487B000AFF860B9603B6013462B
S31508007120FB80FB6893F83D30DBB203F02803282B7D
S315080071305BD1BB68002B02D0FB88002B01D1012351
S3150800714054E0FB6893F83C30012B01D102234DE053
S31508007150FB68012283F83C20FB681B681B6803F068
S315080071600103012B07D0FB681B681A68FB681B68BC
S3150800717042F001021A60FB681B681A68FB681B6804
S3150800718022F400621A60FB68292283F83D20FB6816
S31508007190202283F83E20FB6800221A64FB68BA683E
S315080071A05A62FB68FA885A85FB685B8D9AB2FB6857
S315080071B01A85FB683A68DA6200237B61FB681B68FC
S315080071C05B697B61FB681B689B697B617B69FB6804
S315080071D0002283F83C20FB681B685A68FB681B681A
S315080071E042F4E0625A60002300E0022318461C3786
S315080071F0BD465DF8047B704780B487B000AFF86081
S31508007200B9603B601346FB80FB6893F83D30DBB200
S3150800721003F02803282B5BD1BB68002B02D0FB8820
S31508007220002B01D1012354E0FB6893F83C30012B75
S3150800723001D102234DE0FB68012283F83C20FB685C
S315080072401B681B6803F00103012B07D0FB681B684A
S315080072501A68FB681B6842F001021A60FB681B6823
S315080072601A68FB681B6822F400621A60FB682A2207
S3150800727083F83D20FB68202283F83E20FB68002225
S315080072801A64FB68BA685A62FB68FA885A85FB680A
S315080072905B8D9AB2FB681A85FB683A68DA62002346
S315080072A07B61FB681B685B697B61FB681B689B6984
S315080072B07B617B69FB68002283F83C20FB681B68BE
S315080072C05A68FB681B6842F4E0625A60002300E0D3
S315080072D0022318461C37BD465DF8047B704780B408
S315080072E083B000AF78607B6893F83D30DBB2202B23
S315080072F024D17B68282283F83D207B681B681B689D
S3150800730003F00103012B07D07B681B681A687B68AA
S315080073101B6842F001021A607B681B681A687B6862
S315080073201B6842F480621A607B681B685A687B682F
S315080073301B6842F440725A60002300E00223184694
S315080073400C37BD465DF8047B704780B588B000AF42
S3150800735078600023BB617B681B685B687B617B6820
S31508007360DB6A3B617B6893F83E30FB737B6893F876
S315080073703D30BB73FB7B102B03D0FB7B402B40F0CF
S31508007380C1807B681B689B69BB617B681B685B69FE
S31508007390FB61FB6903F00103002B0DD13B69B3F5D3
S315080073A02A0F03D03B69B3F12A4F01D1012300E02C
S315080073B00023012B00F03281FB6903F00103002B47
S315080073C00CD07B695B0A03F00103002B06D07868B2
S315080073D001F080FC786800F083FD92E0FB69DB0829
S315080073E003F00103002B09D07B695B0A03F0010354
S315080073F0002B03D0786800F0F9FD82E0FB695B0892
S3150800740003F00103002B09D07B695B0A03F0010333
S31508007410002B03D0786800F013FE72E0BB699B0866
S3150800742003F00103002B3BD07B681B685B6803F401
S315080074300063B3F5006F00F0F380FB69DB0903F026
S315080074400103002B0FD07B699B0A03F00103002B75
S3150800745009D0FB699B0803F00103002B03D1786868
S3150800746000F0DBF94DE0FB699B0803F00103002BF4
S3150800747000F0D6807B695B0A03F00103002B00F05D
S31508007480CF80BB7B212B03D1786800F062FAC7E076
S31508007490FB7B402B40F0C480786800F0D0FABFE050
S315080074A07B681B685B6803F40063B3F5006F00F044
S315080074B0B780FB699B0903F00103002B0FD07B699A
S315080074C09B0A03F00103002B09D0FB699B0803F014
S315080074D00103002B03D1786800F049FB11E0FB6932
S315080074E09B0803F00103002B00F09A807B695B0A76
S315080074F003F00103002B00F09380786800F0FFFB8F
S315080075008EE08DE07B681B6C002B04D07B681B68C3
S315080075105B69FB6107E07B681B689B69BB617B68ED
S315080075201B685B69FB61FB695B0803F00103002BC1
S3150800753012D07B695B0A03F00103002B0CD07B6831
S315080075401B6C002B03D07B681B689B69BB61B96900
S31508007550786800F0C4FF66E0FB691B0903F00103C5
S31508007560002B09D07B695B0A03F00103002B03D0CB
S31508007570786800F0FFFF56E0BB7B212B02D0BB7B6F
S31508007580292B25D1FB69DB0903F00103002B0FD05A
S315080075907B699B0A03F00103002B09D0FB699B0852
S315080075A003F00103002B03D1786800F0DAFE39E016
S315080075B0FB699B0803F00103002B33D07B695B0A48
S315080075C003F00103002B2DD0786800F007FF29E0AF
S315080075D0FB699B0903F00103002B0FD07B699B0A0B
S315080075E003F00103002B09D0FB699B0803F0010394
S315080075F0002B03D1786800F012FF14E0FB699B08A2
S3150800760003F00103002B0ED07B695B0A03F001032C
S31508007610002B08D0786800F040FF04E000BF02E0C5
S3150800762000BF00E000BF2037BD4680BD80B58AB0E8
S3150800763000AF78607B681B685B693B627B681B6888
S315080076405B68FB6100237B627B6893F83E30FB76C0
S315080076503B6A1B0A03F00103002B0ED0FB691B0AC9
S3150800766003F00103002B08D07B6A43F001037B6219
S315080076707B681B686FF480725A613B6A5B0A03F089
S315080076800103002B0ED0FB691B0A03F00103002B34
S3150800769008D07B6A43F002037B627B681B686FF441
S315080076A000725A613B6A9B0A03F00103002B3FD024
S315080076B0FB691B0A03F00103002B39D0FB7EBB765E
S315080076C07B685B8D9BB27B617B6893F83D30FB746E
S315080076D07B681B6BFB60BB7E202B12D17B69002B62
S315080076E00FD1FB7C212B08D0FB7C292B05D0FB7CFA
S315080076F0282B06D1FB68212B03D1786801F06AF89C
S3150800770016E07B681B686FF480625A617B6A43F0F7
S3150800771004037B62FB7E102B02D0FB7E402B07D135
S315080077207B681B681A687B681B6842F400721A60DB
S315080077303B6ADB0A03F00103002B0ED0FB691B0A28
S3150800774003F00103002B08D07B6A43F008037B6231
S315080077507B681B686FF400625A617B6A002B08D04D
S315080077607B681A6C7B6A1A437B681A64786801F02E
S31508007770A5F800BF2837BD4680BD80B483B000AFEA
S31508007780786000BF0C37BD465DF8047B704780B44F
S3150800779083B000AF786000BF0C37BD465DF8047B48
S315080077A0704780B483B000AF786000BF0C37BD4621
S315080077B05DF8047B704780B483B000AF786000BF83
S315080077C00C37BD465DF8047B704780B483B000AFC4
S315080077D0786000BF0C37BD465DF8047B704780B4FF
S315080077E083B000AF786000BF0C37BD465DF8047BF8
S315080077F0704780B483B000AF786000BF0C37BD46D1
S315080078005DF8047B704780B483B000AF786000BF32
S315080078100C37BD465DF8047B704780B584B000AF71
S3150800782078607B6893F83D30FB737B6893F83E304D
S31508007830BB737B68DB6ABB607B681B8D002B50D1F2
S31508007840FB7B212B4DD1BB68082B1DD0BB68202B99
S315080078501AD0BB6813F5803F16D07B681B685A6838
S315080078607B681B6822F4E0625A607B6811221A63FF
S315080078707B68002283F83E207B68202283F83D201F
S315080078807868FFF77AFF60E07B681B685A687B6850
S315080078901B6822F4E0625A607B681B681A687B687A
S315080078A01B6842F400721A607B6800221A637B68C0
S315080078B0202283F83D207B6893F83E30DBB2402BCC
S315080078C007D17B68002283F83E207868FFF77DFFA2
S315080078D03BE07B68002283F83E207868FFF74DFF7F
S315080078E033E0FB7B212B05D0BB7B402B2DD1FB7BCB
S315080078F0222B2AD17B685B8D9BB2002B08D17B6833
S315080079001B685A687B681B6822F480625A601CE010
S315080079107B6893F83E30DBB2402B03D1786800F0E1
S315080079208EF812E07B685B6A1A787B681B681A61B6
S315080079307B685B6A5A1C7B685A627B685B8D9BB264
S31508007940013B9AB27B685A85FFE700BF1037BD46F0
S3150800795080BD80B584B000AF78607B68DB6AFB6069
S315080079607B6893F83D30DBB2212B64D17B685B8D55
S315080079709BB2002B12D07B685B6A1A787B681B68FF
S315080079801A617B685B6A5A1C7B685A627B685B8DE6
S315080079909BB2013B9AB27B685A854CE0FB68082B80
S315080079A01DD0FB68202B1AD0FB6813F5803F16D034
S315080079B07B681B685A687B681B6822F4E0625A6019
S315080079C07B6811221A637B68002283F83E207B6855
S315080079D0202283F83D207868FFF7CFFE2BE07B68EE
S315080079E01B685A687B681B6822F4E0625A607B68E9
S315080079F01B681A687B681B6842F400721A607B6809
S31508007A0000221A637B68202283F83D207B6893F85E
S31508007A103E30DBB2402B07D17B68002283F83E203C
S31508007A207868FFF7D2FE06E07B68002283F83E20DE
S31508007A307868FFF7A2FE00BF1037BD4680BD80B547
S31508007A4084B000AF78607B6893F83D30FB737B6841
S31508007A501B6D002B1DD17B68DB6C012B0BD17B6862
S31508007A609B6CDAB27B681B681A617B681B6D9A1C73
S31508007A707B681A6577E07B689B6C9BB21B12DAB24F
S31508007A807B681B681A617B681B6D5A1C7B681A65C4
S31508007A9069E07B681B6D012B0BD17B689B6CDAB2A6
S31508007AA07B681B681A617B681B6D5A1C7B681A65A4
S31508007AB059E07B681B6D022B52D1FB7B222B0DD123
S31508007AC07B681B681A687B681B6842F480721A60B8
S31508007AD07B681B6D5A1C7B681A6544E07B685B8D66
S31508007AE09BB2002B15D0FB7B212B12D17B685B6ADE
S31508007AF01A787B681B681A617B685B6A5A1C7B6804
S31508007B005A627B685B8D9BB2013B9AB27B685A8549
S31508007B1029E07B685B8D9BB2002B24D1FB7B212B54
S31508007B2021D17B681B685A687B681B6822F4E0626F
S31508007B305A607B681B681A687B681B6842F4007287
S31508007B401A607B6800221A637B68202283F83D202E
S31508007B507B68002283F83E207868FFF736FE02E04D
S31508007B607868FFF7C1FA00BF1037BD4680BD80B5FB
S31508007B7084B000AF78607B6893F83D30DBB2222B87
S31508007B8040F0B9807B68DB6AFB607B685B8D9BB2E3
S31508007B90BB60BB68032B21D97B681B681A697B68A5
S31508007BA05B6AD2B21A707B685B6A5A1C7B685A6237
S31508007BB07B685B8D9BB2013B9AB27B685A857B6872
S31508007BC05B8D9BB2032B40F096807B681B685A68D6
S31508007BD07B681B6822F480625A608CE07B68DB6AEB
S31508007BE0022B7FD0BB68012B02D0BB68002B79D152
S31508007BF0786801F03DF80346002B4CD17B681B687A
S31508007C001A687B681B6822F480621A607B681B68A6
S31508007C105A687B681B6822F4E0625A607B681B68B6
S31508007C201A697B685B6AD2B21A707B685B6A5A1CEF
S31508007C307B685A627B685B8D9BB2013B9AB27B6814
S31508007C405A857B68202283F83D207B6893F83E306E
S31508007C50DBB2402B0AD17B68002283F83E207B6882
S31508007C6000221A637868FFF7BAFD44E07B680022B1
S31508007C7083F83E20FB68082B02D0FB68202B03D133
S31508007C807B6800221A6302E07B6812221A6378680E
S31508007C90FFF77DFD2FE07B681B685A687B681B68C9
S31508007CA022F4E0625A607B681B681A697B685B6A23
S31508007CB0D2B21A707B685B6A5A1C7B685A627B6808
S31508007CC05B8D9BB2013B9AB27B685A857B68202202
S31508007CD083F83D207B68002283F83E207868FFF70A
S31508007CE088FD08E07B681B685A687B681B6822F475
S31508007CF080625A60FFE700BF1037BD4680BD80B579
S31508007D0084B000AF78607B68DB6AFB607B685B8D5C
S31508007D109BB2042B1BD17B681B685A687B681B685F
S31508007D2022F480625A607B681B681A697B685B6A02
S31508007D30D2B21A707B685B6A5A1C7B685A627B6887
S31508007D405B8D9BB2013B9AB27B685A85C4E07B681F
S31508007D505B8D9BB2032B29D17B681B685A687B68AD
S31508007D601B6822F480625A60FB68042B0AD0FB6801
S31508007D70022B07D07B681B681A687B681B6822F48D
S31508007D8080621A607B681B681A697B685B6AD2B274
S31508007D901A707B685B6A5A1C7B685A627B685B8DC3
S31508007DA09BB2013B9AB27B685A8595E07B685B8DEE
S31508007DB09BB2022B7DD1FB68012B02D0FB68102BEE
S31508007DC008D17B681B681A687B681B6822F4806286
S31508007DD01A6016E0FB68042B02D0FB68022B08D158
S31508007DE07B681B681A687B681B6842F480621A60A5
S31508007DF007E07B681B681A687B681B6842F4007298
S31508007E001A607B681B681A697B685B6AD2B21A704B
S31508007E107B685B6A5A1C7B685A627B685B8D9BB27F
S31508007E20013B9AB27B685A857B681B681A697B682E
S31508007E305B6AD2B21A707B685B6A5A1C7B685A62A4
S31508007E407B685B8D9BB2013B9AB27B685A857B68DF
S31508007E501B685A687B681B6822F440725A607B6804
S31508007E60202283F83D207B6893F83E30DBB2402B16
S31508007E700AD17B68002283F83E207B6800221A63B9
S31508007E807868FFF7ACFC27E07B68002283F83E2081
S31508007E90FB68082B02D0FB68202B03D17B680022E5
S31508007EA01A6302E07B6812221A637868FFF76FFC90
S31508007EB012E07B681B681A697B685B6AD2B21A7023
S31508007EC07B685B6A5A1C7B685A627B685B8D9BB2CF
S31508007ED0013B9AB27B685A8500BF1037BD4680BD04
S31508007EE080B483B000AF78607B6893F83E30DBB22D
S31508007EF0402B17D17B681B6D002B09D17B685B6C07
S31508007F00DBB21A467B681B6802F0FE021A6167E05C
S31508007F107B685B6CDBB243F00103DAB27B681B68F3
S31508007F201A615DE07B681B69B3F5804F33D17B68C6
S31508007F3093F83D30DBB2212B09D17B685B6CDBB251
S31508007F401A467B681B6802F0FE021A6108E07B6825
S31508007F505B6CDBB243F00103DAB27B681B681A611B
S31508007F607B685B6B002B04D07B685B6BDB6B002B41
S31508007F7008D17B689B6B002B32D07B689B6BDB6BD5
S31508007F80002B2DD07B681B685A687B681B6842F4F7
S31508007F9000625A6024E07B681B6D002B0ED17B685B
S31508007FA05B6C9BB2DB11DBB203F00603DBB263F05A
S31508007FB00F03DAB27B681B681A6111E07B681B6DD8
S31508007FC0012B0DD17B685B6C9BB2DB11DBB203F036
S31508007FD00603DBB263F00E03DAB27B681B681A612C
S31508007FE000BF0C37BD465DF8047B704780B483B08C
S31508007FF000AF78607B685B6CDAB27B681B681A61D5
S315080080007B685B6B002B04D07B685B6BDB6B002BA0
S3150800801008D17B689B6B002B0CD07B689B6BDB6B5A
S31508008020002B07D07B681B685A687B681B6842F47C
S3150800803000625A6000BF0C37BD465DF8047B704786
S3150800804080B491B000AF78607B6893F83E3087F8CB
S315080080503F307B68DB6ABB637B681B6B7B637B6833
S3150800806093F83D30DBB2222B40F069817B681B6DAB
S31508008070002B0FD197F83F30402B0BD100233B63E1
S315080080807B681B685B693B637B681B689B693B6312
S315080080903B6B60E17B681B6D002B1DD17B681B6900
S315080080A0B3F5404F18D10023FB627B681B685B69F8
S315080080B0FB627B681B689B69FB62FB6A7B681B68C3
S315080080C01A687B681B6842F480721A607B681B6DAD
S315080080D05A1C7B681A653EE17B685B8D9BB2002B58
S315080080E013D10023BB627B681B685B69BB627B6834
S315080080F01B689B69BB62BB6A7B681B681A687B68DE
S315080081001B6842F400721A6015E17B685B8D9BB2AE
S31508008110012B40F08A80BB6B13F5803F37D17B6813
S315080081201B681A687B681B6822F480621A607B6881
S315080081301B685B6803F40063B3F5006F13D17B68B3
S315080081401B681A687B681B6822F480621A60002321
S315080081507B627B681B685B697B627B681B689B69C3
S315080081607B627B6AE7E000233B627B681B685B698E
S315080081703B627B681B689B693B623B6A7B681B6842
S315080081801A687B681B6842F400721A60D3E0BB6BFE
S31508008190082B2ED0BB6B202B2BD07B6B122B02D13E
S315080081A0BB6B012B25D1BB6B042B0ED0BB6B022BF3
S315080081B00BD0BB6B102B08D07B681B681A687B68D2
S315080081C01B6822F480621A6007E07B681B681A68DD
S315080081D07B681B6842F480621A600023FB617B6837
S315080081E01B685B69FB617B681B689B69FB61FB69B4
S315080081F0A1E07B681B681A687B681B6822F48062AA
S315080082001A600023BB617B681B685B69BB617B687E
S315080082101B689B69BB61BB697B681B681A687B68BE
S315080082201B6842F400721A6085E07B685B8D9BB21E
S31508008230022B4DD1BB6B042B16D0BB6B022B13D074
S31508008240BB6B102B10D07B681B681A687B681B6891
S3150800825022F480621A607B681B681A687B681B6850
S3150800826042F400621A6007E07B681B681A687B683C
S315080082701B6842F480621A607B681B685B6803F4BB
S315080082800063B3F5006F17D1BB6B13F5803F0BD0B6
S31508008290BB6B012B08D0BB6B082B05D0BB6B102B17
S315080082A002D0BB6B202B07D17B681B685A687B689A
S315080082B01B6842F480525A6000237B617B681B6806
S315080082C05B697B617B681B689B697B617B6932E0C4
S315080082D07B681B681A687B681B6842F480621A60B0
S315080082E07B681B685B6803F40063B3F5006F17D1FE
S315080082F0BB6B13F5803F0BD0BB6B012B08D0BB6B58
S31508008300082B05D0BB6B102B02D0BB6B202B07D1DB
S315080083107B681B685A687B681B6842F480525A60FF
S3150800832000233B617B681B685B693B617B681B6854
S315080083309B693B613B697B6800221A650BE0002359
S31508008340FB607B681B685B69FB607B681B689B69D5
S31508008350FB60FB68FFE700BF4437BD465DF8047B5A
S31508008360704780B584B000AF78607B6893F83D307D
S31508008370FB737B685B8D9BB2002B2BD07B685B6A9B
S315080083801A787B681B681A617B685B6A5A1C7B686B
S315080083905A627B685B8D9BB2013B9AB27B685A85B1
S315080083A07B685B8D9BB2002B14D1FB7B292B11D1EB
S315080083B07B681B685A687B681B6822F480625A606F
S315080083C07B6821221A637B68282283F83D20786817
S315080083D0FFF7E7F900BF1037BD4680BD80B483B00C
S315080083E000AF78607B685B8D9BB2002B11D07B68F1
S315080083F05B6A1A787B681B681A617B685B6A5A1C19
S315080084007B685A627B685B8D9BB2013B9AB27B683C
S315080084105A8500BF0C37BD465DF8047B704780B5AA
S3150800842084B000AF78607B6893F83D30FB737B6857
S315080084305B8D9BB2002B2CD07B681B681A697B6806
S315080084405B6AD2B21A707B685B6A5A1C7B685A628E
S315080084507B685B8D9BB2013B9AB27B685A857B68C9
S315080084605B8D9BB2002B14D1FB7B2A2B11D17B6829
S315080084701B685A687B681B6822F480625A607B68AE
S3150800848022221A637B68282283F83D207868FFF742
S3150800849092F900BF1037BD4680BD80B483B000AFE7
S315080084A078607B685B8D9BB2002B12D07B681B685B
S315080084B01A697B685B6AD2B21A707B685B6A5A1C57
S315080084C07B685A627B685B8D9BB2013B9AB27B687C
S315080084D05A8500BF0C37BD465DF8047B704780B5EA
S315080084E084B000AF786039600023FB737B6893F82B
S315080084F03D30DBB203F02803282B27D17B681B68A5
S315080085005A687B681B6822F480625A603B689B083D
S3150800851003F00103002B01D10123FB733B68DB0940
S3150800852003F00103002B03D17B68DB68BB8102E003
S315080085307B689B69BB817B68002283F83C20BA89EB
S31508008540FB7B19467868FCF79DFC0EE00023BB60B0
S315080085507B681B685B69BB607B681B689B69BB6043
S31508008560BB687B68002283F83C2000BF1037BD46F5
S3150800857080BD000080B584B000AF78607B6893F852
S315080085803D30FB737B681B685A687B681B6822F45E
S31508008590E0625A600023BB607B681B685B69BB604E
S315080085A07B681B681A687B681B6842F001021A60C0
S315080085B0BB687B681B681A687B681B6822F4806244
S315080085C01A607B681B685B6803F40063B3F5006F89
S315080085D072D1FB7B222B02D0FB7B2A2B35D17B6801
S315080085E09B6B1B685B689AB27B685A857B685B8D58
S315080085F09BB2002B05D07B681B6C43F004027B689A
S315080086001A647B681B685A687B681B6822F40062D8
S315080086105A607B689B6B1846FEF77EF90346012B6A
S3150800862049D07B689B6B694A1A657B689B6B1846C1
S31508008630FDF7C6FF0346002B3DD07B689B6B1B6D81
S315080086407A68926B1046984735E07B685B6B1B68C7
S315080086505B689AB27B685A857B685B8D9BB2002BF8
S3150800866005D07B681B6C43F004027B681A647B6840
S315080086701B685A687B681B6822F400625A607B682C
S315080086805B6B1846FEF748F90346012B14D07B6846
S315080086905B6B4E4A1A657B685B6B1846FDF790FF65
S315080086A00346002B08D07B685B6B1B6D7A68526BA0
S315080086B01046984700E000BF7B685B8D9BB2002B95
S315080086C03ED07B681B685B6903F00403042B12D158
S315080086D07B681B681A697B685B6AD2B21A707B680A
S315080086E05B6A5A1C7B685A627B685B8D9BB2013B4E
S315080086F09AB27B685A857B681B685B6903F04003FE
S31508008700402B12D17B681B681A697B685B6AD2B2F8
S315080087101A707B685B6A5A1C7B685A627B685B8D39
S315080087209BB2013B9AB27B685A857B685B8D9BB28C
S31508008730002B05D07B681B6C43F004027B681A6427
S315080087407B681B6C002B03D0786800F0B7F839E01B
S31508008750FB7B2A2B09D17B6800221A637B682822B7
S3150800876083F83D207868FFF726F87B6893F83D3054
S31508008770DBB2282B11D17B68154ADA627B680022A6
S315080087801A637B68202283F83D207B68002283F8E1
S315080087903E207868FCF764FB14E07B681B6B222B91
S315080087A002D0FB7B222B0DD17B6800221A637B68E3
S315080087B0202283F83D207B68002283F83E207868D3
S315080087C0FEF7F9FF00BF1037BD4680BD218B0008B4
S315080087D00000FFFF80B584B000AF78607B6893F82F
S315080087E03D30FB737B68DB6ABB60BB68082B02D035
S315080087F0BB68202B29D1FB7B282B26D17B682E4AE8
S31508008800DA627B681B685A687B681B6822F4E06238
S315080088105A607B681B686FF480625A617B681B68C4
S315080088201A687B681B6822F480621A607B680022DB
S315080088301A637B68202283F83D207B68002283F830
S315080088403E207868FCF70CFB31E0FB7B212B29D115
S315080088507B68194ADA627B6821221A637B682022C0
S3150800886083F83D207B68002283F83E207B681B68DE
S315080088705A687B681B6822F4E0625A607B681B684A
S315080088806FF480625A617B681B681A687B681B688C
S3150800889022F480621A607868FEF726FC7868FEF78C
S315080088A080FF04E07B681B686FF480625A6100BF32
S315080088B01037BD4680BD00BF0000FFFF80B584B0FD
S315080088C000AF78607B6893F83D30FB737B6893F85C
S315080088D03E30BB73BB7B102B02D0BB7B402B0AD12F
S315080088E0FB7B222B07D17B681B681A687B681B6891
S315080088F022F400621A60FB7B03F02803282B07D1B9
S315080089007B6800221A637B68282283F83D2015E0DD
S315080089107B681B685B6803F40063B3F5006F0AD0D5
S31508008920FB7B602B07D07B68202283F83D207B6881
S31508008930002283F83E207B6800221A637B681B6846
S315080089405B6803F40063B3F5006F62D17B681B684C
S315080089505A687B681B6822F400625A607B685B6B06
S3150800896093F83530DBB2012B20D07B685B6B6A4A03
S315080089701A657B685B6B1846FDF722FE0346002BDB
S3150800898000F089807B681B681A687B681B6822F080
S3150800899001021A607B68202283F83D207B685B6BA6
S315080089A01B6D7A68526B1046984774E07B689B6B20
S315080089B0594A1A657B689B6B1846FDF701FE034604
S315080089C0002B68D07B681B685B6903F04003402B6B
S315080089D00BD17B681B681A697B685B6AD2B21A700E
S315080089E07B685B6A5A1C7B685A627B681B681A68D4
S315080089F07B681B6822F001021A607B68202283F8D4
S31508008A003D207B689B6B1B6D7A68926B1046984776
S31508008A1041E07B6893F83D30DBB2602B25D17B685B
S31508008A20202283F83D207B6800221A647B681B6835
S31508008A305B6903F04003402B0BD17B681B681A69FE
S31508008A407B685B6AD2B21A707B685B6A5A1C7B6861
S31508008A505A627B681B681A687B681B6822F00102E9
S31508008A601A607868FEF7CFFE15E07B681B685B69BD
S31508008A7003F04003402B0BD17B681B681A697B689F
S31508008A805B6AD2B21A707B685B6A5A1C7B685A6248
S31508008A907868FEF7AEFE7B681B6CBB60BB6803F0AC
S31508008AA00103002B0ED1BB6803F00203002B09D18A
S31508008AB0BB6803F00403002B04D1BB6803F008036A
S31508008AC0002B07D07B681B685A687B681B6822F4F2
S31508008AD0E0625A607B6893F83D30FB737B681B6CD9
S31508008AE003F00403042B13D1FB7B282B10D17B68DE
S31508008AF00A4ADA627B6800221A637B68202283F8B6
S31508008B003D207B68002283F83E207868FCF7A8F9A8
S31508008B1000BF1037BD4680BD218B00080000FFFF4F
S31508008B2080B586B000AF78600023FB607B689B6BDE
S31508008B307B617B6993F83D30FB744B4B1B68DB0804
S31508008B404A4AA2FB03231A0A13469B001344DA0077
S31508008B50D31AFB60FB68002B06D17B691B6C43F0BC
S31508008B6020027B691A640AE0FB68013BFB607B69AB
S31508008B701B681B6803F40073B3F5007FEAD07B69B2
S31508008B805B6B002B03D07B695B6B0022DA637B6926
S31508008B909B6B002B03D07B699B6B0022DA637B6996
S31508008BA01B681A687B691B6822F480621A607B69F5
S31508008BB000225A857B695B6B002B03D07B695B6B54
S31508008BC000221A657B699B6B002B03D07B699B6B24
S31508008BD000221A657B691B681A687B691B6822F084
S31508008BE001021A607B6993F83D30DBB2602B0ED127
S31508008BF07B69202283F83D207B69002283F83E208A
S31508008C007B6900221A647869FEF7FDFD27E0FB7C84
S31508008C1003F02803282B17D17B691B681A687B6920
S31508008C201B6842F001021A607B691B681A687B6937
S31508008C301B6842F480621A607B6900221A637B69AA
S31508008C40282283F83D2007E07B69202283F83D200F
S31508008C507B69002283F83E207869FEF7CAFD00BFCB
S31508008C601837BD4680BD00BF0000002089B5F8143E
S31508008C7080B485B000AF78600023FB60134B1B6897
S31508008C80DB08134AA2FB03231A0A13469B00134464
S31508008C90FB60FB68013BFB60FB68002B07D17B6828
S31508008CA01B6C43F020027B681A64012308E07B688A
S31508008CB01B681B6803F40073B3F5007FE9D0002333
S31508008CC018461437BD465DF8047B7047000000203F
S31508008CD089B5F81480B483B000AF78607B68DB6A26
S31508008CE0B3F52A0F03D17B680122DA6207E07B68B5
S31508008CF0DB6AB3F12A4F02D17B680822DA6200BF29
S31508008D000C37BD465DF8047B7047000080B586B019
S31508008D1000AF78607B68002B01D1012367E27B688E
S31508008D201B6803F00103002B75D0884B9B6803F082
S31508008D300C03042B0CD0854B9B6803F00C03082B03
S31508008D4012D1824B5B6803F48003B3F5800F0BD115
S31508008D507E4B1B6803F40033002B5BD07B685B6893
S31508008D60002B57D1012342E27B685B68B3F5803F4D
S31508008D7006D1764B1B68754A43F4803313601DE0B1
S31508008D807B685B68B3F5A02F0CD1704B1B686F4AE4
S31508008D9043F4802313606D4B1B686C4A43F480339D
S31508008DA013600BE0694B1B68684A23F48033136031
S31508008DB0664B1B68654A23F4802313607B685B68EF
S31508008DC0002B13D0FCF7EAFD386108E0FCF7E6FD56
S31508008DD002463B69D31A642B01D9032307E25B4B8E
S31508008DE01B6803F40033002BF0D014E0FCF7D6FD23
S31508008DF0386108E0FCF7D2FD02463B69D31A642BBA
S31508008E0001D90323F3E1514B1B6803F40033002B0C
S31508008E10F0D100E000BF7B681B6803F00203002B5B
S31508008E2063D04A4B9B6803F00C03002B0BD0474BCF
S31508008E309B6803F00C03082B1CD1444B5B6803F4B6
S31508008E408003002B16D1414B1B6803F00203002B4D
S31508008E5005D07B68DB68012B01D00123C7E13B4BBA
S31508008E601B6823F0F8027B681B69DB00374913434C
S31508008E700B603AE07B68DB68002B20D0344B01227C
S31508008E801A60FCF78BFD386108E0FCF787FD02469F
S31508008E903B69D31A022B01D90323A8E12B4B1B6884
S31508008EA003F00203002BF0D0284B1B6823F0F802CE
S31508008EB07B681B69DB00254913430B6015E0244BCF
S31508008EC000221A60FCF76AFD386108E0FCF766FDC7
S31508008ED002463B69D31A022B01D9032387E11B4BB0
S31508008EE01B6803F00203002BF0D17B681B6803F0B4
S31508008EF00803002B36D07B685B69002B16D0154B10
S31508008F0001221A60FCF74AFD386108E0FCF746FDC5
S31508008F1002463B69D31A022B01D9032367E10B4B9F
S31508008F205B6F03F00203002BF0D01BE0094B002215
S31508008F301A60FCF733FD38610EE0FCF72FFD024698
S31508008F403B69D31A022B07D9032350E100380240A4
S31508008F5000004742800E4742884B5B6F03F00203CE
S31508008F60002BEAD17B681B6803F00403002B00F092
S31508008F7097800023FB75814B1B6C03F08053002BF5
S31508008F800FD10023BB607D4B1B6C7C4A43F080539A
S31508008F9013647A4B1B6C03F08053BB60BB680123D8
S31508008FA0FB75774B1B6803F48073002B18D1744B41
S31508008FB01B68734A43F480731360FCF7EFFC38614F
S31508008FC008E0FCF7EBFC02463B69D31A022B01D9F1
S31508008FD003230CE16A4B1B6803F48073002BF0D063
S31508008FE07B689B68012B06D1644B1B6F634A43F071
S31508008FF0010313671CE07B689B68052B0CD15F4B4C
S315080090001B6F5E4A43F0040313675C4B1B6F5B4A96
S3150800901043F0010313670BE0584B1B6F574A23F0C5
S3150800902001031367554B1B6F544A23F00403136758
S315080090307B689B68002B15D0FCF7B0FC38610AE00A
S31508009040FCF7ACFC02463B69D31A41F288329342DC
S3150800905001D90323CBE0494B1B6F03F00203002B16
S31508009060EED014E0FCF79AFC38610AE0FCF796FCAF
S3150800907002463B69D31A41F28832934201D9032347
S31508009080B5E03E4B1B6F03F00203002BEED1FB7DD0
S31508009090012B05D1394B1B6C384A23F080531364D6
S315080090A07B689B69002B00F0A180344B9B6803F01A
S315080090B00C03082B5CD07B689B69022B41D1314B92
S315080090C000221A60FCF76AFC386108E0FCF766FCC7
S315080090D002463B69D31A022B01D9032387E0274BA3
S315080090E01B6803F00073002BF0D17B68DA697B6894
S315080090F01B6A1A437B685B6A9B011A437B689B6AF7
S315080091005B08013B1B041A437B68DB6A1B061B4989
S3150800911013434B601B4B01221A60FCF73FFC386176
S3150800912008E0FCF73BFC02463B69D31A022B01D93F
S3150800913003235CE0114B1B6803F00073002BF0D08F
S3150800914054E0104B00221A60FCF728FC386108E04E
S31508009150FCF724FC02463B69D31A022B01D90323E8
S3150800916045E0064B1B6803F00073002BF0D13DE089
S315080091707B689B69012B07D1012338E00038024040
S3150800918000700040600047421B4B5B68FB607B68D1
S315080091909B69012B28D0FB6803F480027B68DB6996
S315080091A09A4221D1FB6803F03F027B681B6A9A4208
S315080091B01AD1FA6847F6C07313407A68526A920160
S315080091C0934211D1FB6803F440327B689B6A5B08C3
S315080091D0013B1B049A4207D1FB6803F070627B6867
S315080091E0DB6A1B069A4201D0012300E000231846D9
S315080091F01837BD4680BD00BF0038024080B584B030
S3150800920000AF786039607B68002B01D10123CCE080
S31508009210684B1B6803F007033A689A420CD9654BFA
S315080092203A68D2B21A70634B1B6803F007033A68B0
S315080092309A4201D00123B8E07B681B6803F0020359
S31508009240002B20D07B681B6803F00403002B05D095
S31508009250594B9B68584A43F4E05393607B681B68F4
S3150800926003F00803002B05D0534B9B68524A43F47E
S3150800927060439360504B9B6823F0F0027B689B68C1
S315080092804D4913438B607B681B6803F00103002B71
S3150800929044D07B685B68012B07D1474B1B6803F4F6
S315080092A00033002B19D101237FE07B685B68022B12
S315080092B003D07B685B68032B07D13F4B1B6803F021
S315080092C00073002B09D101236FE03B4B1B6803F0A9
S315080092D00203002B01D1012367E0374B9B6823F07B
S315080092E003027B685B68344913438B60FCF756FBC3
S315080092F0F8600AE0FCF752FB0246FB68D31A41F213
S315080093008832934201D903234FE02B4B9B6803F025
S315080093100C027B685B689B009A42EBD1254B1B6865
S3150800932003F007033A689A420CD2224B3A68D2B243
S315080093301A70204B1B6803F007033A689A4201D05B
S31508009340012332E07B681B6803F00403002B08D076
S31508009350194B9B6823F4E0527B68DB681649134374
S315080093608B607B681B6803F00803002B09D0124B3F
S315080093709B6823F460427B681B69DB000E49134334
S315080093808B6000F021F802460B4B9B681B0903F023
S315080093900F030A49CB5C22FA03F3094A1360094B07
S315080093A01B681846FBF7FCFE002318461037BD4617
S315080093B080BD00BF003C02400038024004DF0008C0
S315080093C000000020040000202DE9B04F90B000AF47
S315080093D000237B630023FB6300233B630023BB63FB
S315080093E0594B9B6803F00C03082B0DD0082B00F291
S315080093F0A180002B02D0042B03D09BE0534BBB6308
S315080094009BE0534BBB6398E04F4B5B6803F03F030D
S315080094107B634D4B5B6803F48003002B28D04A4BD3
S315080094205B689B0900223B627A623B6AC3F30800C9
S315080094300021474B03FB01F2002300FB03F313440F
S31508009440434AA0FB0212FA620A46BA62FA6A13444F
S31508009450FB627B6B0022BB61FA61D7E90623D7E979
S315080094600A01FAF7BDFE02460B461346FB6353E0B4
S31508009470354B5B689B0900223B617A613B69C3F304
S31508009480080A4FF0000B52465B464FF000004FF0BB
S315080094900001590141EAD261500102460B46B2EB7E
S315080094A00A0863EB0B094FF000024FF000034FEA7E
S315080094B0891343EA98634FEA8812B2EB080463EB10
S315080094C009054FF000024FF00003EB0043EA54731E
S315080094D0E20014461D4614EB0A033B6045EB0B03FA
S315080094E07B604FF000024FF00003D7E9004529469C
S315080094F08B02214643EA915321468A0210461946B1
S315080095007B6B0022BB60FA60D7E90223FAF768FE94
