S017000032302D32302D322D362D322D312D322E737265633E
S315080040000000012079520008694C00086D4C000830
S31508004010714C0008754C0008794C00080000000037
S3150800402000000000000000000000000081A1000858
S315080040307D4C00080000000011A2000875A20008C7
S31508004040C9520008C9520008C9520008C9520008D6
S31508004050C9520008C9520008C9520008C9520008C6
S31508004060C9520008C9520008C9520008C9520008B6
S31508004070C9520008C9520008C9520008C9520008A6
S31508004080C9520008C9520008C952000800000000B9
S31508004090000000000000000000000000C9520008EF
S315080040A0C9520008814C00089D4C0008C9520008F6
S315080040B0C9520008C9520008C9520008C952000866
S315080040C0C9520008B94C0008C54C0008D14C000874
S315080040D0C9520008C9520008C95200080000000069
S315080040E0C9520008C9520008C95200080000000059
S315080040F0000000000000000000000000C95200088F
S3150800410000000000C9520008C9520008C952000838
S315080041100000000000000000000000000000000091
S31508004120DD4C0008C9520008C9520008E94C0008CD
S31508004130C95200080000000000000000000000004E
S31508004140000000000000000000000000C95200083E
S31508004150C9520008C9520008C9520008C9520008C5
S31508004160C9520008C95200080000000000000000FB
S315080041700000000000000000000000000000000031
S3150800418000000000C95200080000000000000000FE
S31508004190C9520008000000000000000000000000EE
S315080041A00000000000000000000000000000000001
S315080041B000000000000000000000000000000000F1
S315080041C000000000000000000000000000000000E1
S315080041D00000000000000000FFFFFFFFEE11AA55D7
S315080041E010B5054C237833B9044B13B10448AFF323
S315080041F000800123237010BDF80F00200000000086
S31508004200DCA7000808B5034B1BB103490348AFF305
S31508004210008008BD00000000FC0F0020DCA7000895
S3150800422053B94AB9002908BF00281CBF4FF0FF310F
S315080042304FF0FF3000F088B9ADF1080C6DE904CEF7
S3150800424000F006F8DDF804E0DDE9022304B0704763
S315080042502DE9F047089D8E4604468846002B4AD12C
S315080042608A42174662D9B2FA82F64EB1C6F12003DF
S3150800427001FA06F820FA03F3B74043EA0808B440FF
S315080042804FEA174E1FFA87FCB8FBFEF1230C0EFB0C
S31508004290118843EA084301FB0CF29A4209D9FB1834
S315080042A001F1FF3080F0EA809A4240F2E780023955
S315080042B03B449A1AA3B2B2FBFEF00EFB102243EA65
S315080042C0024300FB0CFC9C4509D9FB1800F1FF32A0
S315080042D080F0D6809C4540F2D3803B44023840EAC1
S315080042E00140A3EB0C0300211DB1F3400022C5E9F0
S315080042F00032BDE8F0878B4205D90DB1C5E900014A
S3150800430000210846F5E7B3FA83F1002946D173453B
S3150800431002D3824200F20581841A6EEB0302012061
S315080043209046002DE5D0C5E90048E2E7002A00F0EE
S315080043309080B2FA82F6002E40F0A4808A1A030C06
S315080043404FEA174E80B2BCB20121B2FBFEFC0EFB4F
S315080043501C2243EA024304FB0CF29A4207D9FB18D3
S315080043600CF1FF3802D29A4200F2E080C4469B1A4A
S31508004370B3FBFEF20EFB123340EA034302FB04F4DE
S315080043809C4207D9FB1802F1FF3002D29C4200F288
S31508004390CA8002461B1B42EA0C40A5E7C1F120066B
S315080043A08B4022FA06F71F430EFA01F420FA06F3A9
S315080043B02EFA06FE4FEA1749234300FA01F81FFAB8
S315080043C087FCBEFBF9F01C0C09FB10EE44EA0E4410
S315080043D000FB0CFEA64502FA01F209D93C1900F1C8
S315080043E0FF3A80F09C80A64540F2998002383C440A
S315080043F0A4EB0E041FFA83FEB4FBF9F309FB13447E
S315080044004EEA044403FB0CFCA44508D93C1903F105
S31508004410FF3E80F08280A4457FD9023B3C4443EAB4
S315080044200040A4EB0C04A0FB02EC64457346E1468D
S3150800443062D35FD05DB1B8EB030264EB090404FAFA
S3150800444006F622FA01F31E43CC40C5E900640021B2
S315080044504FE7B1FBF2FC010C41EA0E4180B240EA9B
S3150800446001423B4638463C46B846BE462026B1FB86
S31508004470F7F1A2EB080241EA0C4166E7014618E7A4
S3150800448010462CE7C6F120022EFA02F3B740B140D7
S3150800449020FA02F24FEA174E0A43B3FBFEF8BCB203
S315080044A00EFB1833110C41EA034108FB04F9B0402E
S315080044B089454FEA104380B23ED9791808F1FF3C86
S315080044C001D289451FD8A1EB0901B1FBFEF909FB09
S315080044D004F80EFB191192B242EA0142424529D26A
S315080044E0BA1809F1FF31C4D24245C2D2A9F1020174
S315080044F03A44BEE7F0459DD2BEEB02036CEB070CCF
S315080045000138E14696E7A7EB09094944A8F1020CE8
S31508004510B1FBFEF909FB04F8DBE773467FE7504673
S3150800452066E70846FDE63B44023A33E7ACF1020C7F
S315080045303B441CE749469CE7A1EB0901C446B1FB8D
S31508004540FEF909FB04F8C4E7704700BF0000000045
S3150800455000B51D481D49012285B00023016002618E
S315080045604FF48031C2614261194A0376CDE90033BE
S31508004570CDE90233C0E9011380F82030C36080F822
S3150800458030300023C0E90A2300F0CCFE68B99FED5D
S315080045900C7B00230C48029369468DED007B01F0E5
S315080045A039F828B905B05DF804FB00F04FFAEEE7D4
S315080045B000F04CFA05B05DF804FB00BFAFF30080CD
S315080045C00A00000001000000181000200020014029
S315080045D00100000F10B53D4B02688EB000249A42C8
S315080045E0CDE90844CDE90A440C9401D00EB010BDBB
S315080045F003F58C3300945A6C354842F480725A6439
S315080046005A6C02F480720092009A01941A6B42F076
S3150800461004021A631A6B02F004020192019A0294C8
S315080046201A6B42F002021A631A6B02F00202029235
S31508004630029A03941A6B42F001021A631A6B02F08B
S3150800464001020392039A04945A6C42F480725A64E3
S315080046505A6C02F480720492049A05941A6B42F01A
S3150800466004021A631A6B02F004020592059A06946C
S315080046701A6B42F001021A631A6B02F001020692E3
S31508004680069A07941A6B42F002021A631B6B03F030
S31508004690020307933F2208A90323CDE90823079BB2
S315080046A001F0C2FACF22032308A90A480A94CDE9E1
S315080046B0082301F0B9FA0322032307480A9408A934
S315080046C0CDE9082301F0B0FA0EB010BD0020014074
S315080046D000080240000002400004024010B582B003
S315080046E000240F4B0194196B41F4800119631B6B6D
S315080046F003F480032246052101933820019B01F02B
S3150800470043F8382001F07CF8224605213B2001F0C9
S315080047103BF83B2002B0BDE8104001F071B800BF7D
S315080047200038024008B504F087F804F09BF804F056
S31508004730FDF8012005F07CF8F7E700BF08B504F09E
S3150800474043FCFCE7044B10B40360044C0C60802364
S315080047505DF8044B1360704760120020601000205B
S3150800476010B5124CA646BEE80F008EB0EC46ACE873
S315080047700F009EE807008CE807000021684605F050
S3150800478027F80B4B04F11C0C1860BCE80F0007ACAB
S315080047900FC49CE8070084E80700002107A805F075
S315080047A017F8044B18600EB010BD00BFF4A7000838
S315080047B00413002000130020F0B500248BB0CDE9C7
S315080047C00444CDE906442C4B009408941A6B2B4EEE
S315080047D02B4D42F004021A631A6B02F0040200928F
S315080047E0009A01941A6B42F080021A631A6B02F05F
S315080047F080020192019A02941A6B42F001021A632E
S315080048001A6B02F001020292029A03941A6B42F0A2
S3150800481002021A631B6B03F002030393304601225C
S315080048204FF40051039B01F0F5FA224628464FF44F
S31508004830005101F0EFFA4FF40057304604A901265B
S31508004840CDE906440497059601F0EEF94FF4805237
S315080048504FF4881304A92846CDE90423069401F0E9
S31508004860E3F904A92846CDE90476CDE9064401F022
S31508004870DBF90BB0F0BD00BF00380240000802406B
S3150800488000040240F0B5274B026889B000249A421A
S31508004890CDE90244CDE90444069401D009B0F0BD3F
S315080048A0214D00942B6B214843F002032B632B6B9D
S315080048B003F0020300934FF480621223CDE902232A
S315080048C00126009B0327042302A90693CDE9046762
S315080048D001F0AAF9092302A906930822122313480C
S315080048E0CDE90223CDE9046701F09EF901942B6C0A
S315080048F043F480032B642B6C03F4800322460521C2
S3150800490001932120019B00F03FFF212000F078FF52
S3150800491022460521222000F037FF222000F070FFF2
S3150800492009B0F0BD005800400038024000040240BB
S3150800493030B5002495B0CDE90A44CDE90344CDE964
S3150800494005441F4B01940C940794196C1D4A41F0B9
S31508004950805119641B6C03F080530193019B0294E8
S31508004960136823F4404343F400431360136803F4C5
S315080049704043029309224FF480330225CDE90823E8
S3150800498001224FF48003CDE90D250F930622542307
S31508004990CDE9102308A80423CDE91253029902F0A1
S315080049A0B5FA0F224FF4805303A82946CDE903250B
S315080049B0CDE90543079402F0BFFC15B030BD00BF32
S315080049C0003802400070004008B500F07FFCFFF791
S315080049D0AFFF00F0B1F900F0B3FA00F04DFB00F0BC
S315080049E0CBFBFFF7B5FDFFF7E7FEFFF777FE00F015
S315080049F02FF804F023FDFFF7B3FE04F0E3FEFEE70D
S31508004A00034B02689A4200D0704704F061BD00BFAC
S31508004A10003001400B4A0368934203D00A4A934286
S31508004A2009D0704710B5044600F06AFC2368064AA8
S31508004A30934202D010BD04F083BABDE8104004F0DA
S31508004A407FBA00BF0048014000440140704700BFDC
S31508004A500B480C4908B50A220023C0E90013C0E92F
S31508004A600233C0E90433C0E90833C0E90A32836176
S31508004A7002F00EFE00B908BDBDE80840FFF7E6BF24
S31508004A802014002000300140F0B5414B02688BB07D
S31508004A9000249A42CDE90444CDE90644089401D09D
S31508004AA00BB0F0BD03F5843301945A6C42F480527E
S31508004AB05A645A6C02F480520192019A02941A6B53
S31508004AC042F001021A631A6B02F001020292029A7C
S31508004AD003941A6B42F002021A631B6B03F002037B
S31508004AE00393302205260223032704A905462948ED
S31508004AF0CDE90423CDE90776039B01F095F830222A
S31508004B0002232548089604A9244E0797CDE90423CD
S31508004B10069401F089F8224A4FF0C063C6E90023DB
S31508004B2030464FF48063C6E90244C6E90434C6E950
S31508004B300644C6E9084400F071FE18BB194C1A4928
S31508004B40EE644FF0C0620023C4E9001220464021FB
S31508004B504FF48062C4E90213C4E90533C4E9073394
S31508004B60B5632261636200F059FE70B9002205211F
S31508004B70AC642320A56300F007FE232000F040FE66
S31508004B800BB0F0BDFFF762FFD8E7FFF75FFFEDE771
S31508004B90003001400000024000040240BC1300201F
S31508004BA0106402405C1300205864024082B00E4B29
S31508004BB000220092596C41F480415964586C00F403
S31508004BC08040009000980192186C40F0805018645C
S31508004BD01B6C03F080530193019B0F216FF00100BA
S31508004BE002B000F0D1BD00BF0038024030B5014622
S31508004BF089B000221A2000F0C7FD1A2000F000FE36
S31508004C000025154B02955A6C144C42F480225A64BE
S31508004C105B6C03F4802301A903A80293029B02F0AC
S31508004C2049FC02F037FC0E4B0E492160A3FB00231A
S31508004C309B0C40F2E732013B2046E2606360256147
S31508004C40A56003F033FA10B1012009B030BD204643
S31508004C5002F0F0FF09B030BD003802407814002099
S31508004C6083DE1B4300480140704700BFFEE700BFD4
S31508004C70FEE700BFFEE700BFFEE700BF704700BFC4
S31508004C8008B5044803F01AF9BDE80840024803F0DD
S31508004C9015B900BF98150020C014002008B50448AF
S31508004CA003F00CF9BDE80840024803F007B900BF55
S31508004CB09815002078140020014801F095BB00BF24
S31508004CC008130020014802F067B800BF0813002047
S31508004CD0014802F085BE00BF20140020014800F0FC
S31508004CE0C9BE00BFBC130020014800F0C3BE00BF08
S31508004CF05C1300200E480F4BD0F8882042F470024F
S31508004D00C0F888201A68002142F001021A609960EA
S31508004D101A68A0F1BC2022F0847222F48032F0389E
S31508004D201A6058601A6822F480221A60D96070479F
S31508004D3000ED00E00038024010B50F480F4C002384
S31508004D40012140F29F12C0E90041C0E90232036125
S31508004D5003F0ACF920B9084802F06CFF38B910BD69
S31508004D60FFF774FE044802F065FF0028F7D0BDE897
S31508004D701040FFF76BBE00BFC0140020004401407E
S31508004D8010B52E4A0368934284B026D02C4A934223
S31508004D9007D02C4A934212D02B4A93423CD004B0F7
S31508004DA010BD2A4B002201921A6C42F002021A64C4
S31508004DB01B6C03F002030193019B04B010BD234B47
S31508004DC0002202921A6C42F004021A641B6C03F069
S31508004DD004030293029B04B010BD00241B4B0094ED
S31508004DE0596C41F0010159645B6C03F001032246DA
S31508004DF0052100931920009B00F0C6FC192000F03D
S31508004E00FFFC1A202246214600F0BEFC1A2004B0F8
S31508004E10BDE8104000F0F4BC0C4B00220392596C1C
S31508004E2041F4003159645B6C03F400330393192091
S31508004E300521039B00F0A8FC1920E8E700000140C3
S31508004E4000040040000800400044014000380240C9
S31508004E5000B5026832498BB000238A42CDE9043393
S31508004E60CDE90633089308D02E498A421DD02E492B
S31508004E708A4232D00BB05DF804FB2C4A0193136BBF
S31508004E802B4843F001031363136B9FED217B03F05B
S31508004E900103019304A901238DED047B019A08936C
S31508004EA000F0C2FE0BB05DF804FB204A0293136BB8
S31508004EB0204843F004031363136B9FED177B03F03D
S31508004EC00403029304A902238DED047B029A089336
S31508004ED000F0AAFE0BB05DF804FB144A0393136BAB
S31508004EE0154843F002031363136B9FED0B7B03F026
S31508004EF00203039304A902238DED047B039A089306
S31508004F0000F092FE0BB05DF804FB00BFAFF3008023
S31508004F10000F000002000000C003000002000000AD
S31508004F20000001400004004000080040003802402C
S31508004F300000024000080240000402400000000091
S31508004F4010B5002496B0202221460EA8CDE90344C8
S31508004F50CDE90744CDE90944CDE90B440294009410
S31508004F6006940594019405F057FB4148414B0360AC
S31508004F704FF6FF73C0E90144C0E904448461C36085
S31508004F8003F094F800284ED14FF480533848029322
S31508004F9002A902F0E1FE002861D1354803F0B4F811
S31508004FA0002859D10022002331486946CDE900235B
S31508004FB003F066F900284CD1002000210022CDE933
S31508004FC00A0160232A48069306A9CDE90722099211
S31508004FD00C9203F0F5F8002838D12548042206A9D2
S31508004FE003F0EEF878BB2248082206A903F0E8F891
S31508004FF030BB1F480C2206A903F0E2F8E8B99FED7A
S315080050001A7B00231A4815930EA98DED127BCDE95C
S315080050100E33CDE9103303F06BF938B91448FFF7AE
S3150800502017FF16B010BDFFF711FDADE7FFF70EFD30
S315080050300F48FFF70DFF16B010BDFFF707FDDEE7B7
S31508005040FFF704FDD5E7FFF701FDCCE7FFF7FEFC08
S31508005050C3E7FFF7FBFCAFE7FFF7F8FCA2E7FFF7AC
S31508005060F5FC9AE7AFF3008000000000002000007E
S31508005070981500200000014000B53D488FB0002378
S31508005080CDE90233CDE90433CDE90033CDE9063362
S31508005090CDE90833CDE90A33C0E901330C9303613E
S315080050A08361344B03604FF6FF73C36002F0FEFF63
S315080050B000283BD14FF480532D48029302A902F0F1
S315080050C04BFE00284CD12A4803F01EF8002844D18C
S315080050D00022002326486946CDE9002303F0D0F8CC
S315080050E0002837D19FED207B00222148089206A987
S315080050F08DED067B0A9203F063F840BB1C48042238
S3150800510006A903F05DF8F8B91948082206A903F0BC
S3150800511057F8B0B916480C2206A903F051F840B959
S315080051201348FFF795FE0FB05DF804FBFFF78EFCFA
S31508005130C0E7FFF78BFC0E48FFF78AFE0FB05DF855
S3150800514004FBFFF783FCE5E7FFF780FCDCE7FFF7E6
S315080051507DFCD3E7FFF77AFCC4E7FFF777FCB7E7F0
S31508005160FFF774FCAFE700BF600000000000000016
S31508005170501500200004004000B53D488FB00023BC
S31508005180CDE90233CDE90433CDE90033CDE9063361
S31508005190CDE90833CDE90A33C0E901330C9303613D
S315080051A08361344B03604FF6FF73C36002F07EFFE2
S315080051B000283BD14FF480532D48029302A902F0F0
S315080051C0CBFD00284CD12A4802F09EFF002844D186
S315080051D00022002326486946CDE9002303F050F84B
S315080051E0002837D19FED207B00222148089206A986
S315080051F08DED067B0A9202F0E3FF40BB1C480422B1
S3150800520006A902F0DDFFF8B91948082206A902F036
S31508005210D7FFB0B916480C2206A902F0D1FF40B94B
S315080052201348FFF715FE0FB05DF804FBFFF70EFCF9
S31508005230C0E7FFF70BFC0E48FFF70AFE0FB05DF854
S3150800524004FBFFF703FCE5E7FFF700FCDCE7FFF7E5
S31508005250FDFBD3E7FFF7FAFBC4E7FFF7F7FBB7E772
S31508005260FFF7F4FBAFE700BF600000000000000096
S315080052700815002000080040DFF834D0002103E0BC
S315080052800C4B5B58435004310B480C4B42189A425E
S31508005290F6D30B4A02E0002342F8043B094B9A4234
S315080052A0F9D3FFF727FD05F01DFAFFF78DFB7047C9
S315080052B000000120B0A8000800000020F80F002018
S315080052C0F80F00201C560020FEE7000008B50B4B1F
S315080052D01A6842F400721A601A6842F480621A6008
S315080052E01A6842F480721A60032000F03BFA0F2015
S315080052F0FFF77CFCFFF75AFC002008BD003C024083
S31508005300034A044B11681B780B441360704700BFAF
S31508005310E015002004000020014B1868704700BF04
S31508005320E0150020002800F09E8038B5056C04467C
S315080053303DB1236CDB060CD5002384F83C300120F4
S3150800534038BDFFF747F96564236C84F83C50DB06E3
S31508005350F2D4236C474A23F4885323F0020343F01C
S31508005360020323645168236821F44031516051686F
S315080053706068014351605A682069A16822F4807206
S315080053805A605A6842EA00225A605A68E06822F06F
S3150800539040725A605A680A435A609A68A16A22F4A7
S315080053A000629A609A6802439A60334A91429A6800
S315080053B051D022F07062E06A9A609A681143996047
S315080053C09A6822F040529A609A6802439A609A68EC
S315080053D022F002029A609A68217E42EA41029A60A5
S315080053E094F82020002A40D05A68616A42F4006284
S315080053F05A605A6822F460425A605A68013942EA89
S3150800540041325A60DA6AE16922F47002DA62DA6ACB
S31508005410013942EA0152DA629A68616922F4007235
S315080054209A609A6894F8300042EA40229A609A682C
S3150800543022F480629A609A68002042EA81229A6081
S315080054406064236C23F0030343F001032364002301
S3150800545084F83C3038BD22F070629A609A6822F06F
S3150800546040529A60B3E7012070475A6822F40062F6
S315080054705A60C7E7002301400100000F10B490F8F6
S315080054803C3083B00022012B01925AD001230268D6
S3150800549080F83C309368DC0714D42C4B2C4C1B68E2
S315080054A09168A4FB03439B0C03EB430341F0010102
S315080054B091600193019B2BB1019B013B0193019BD9
S315080054C0002BF9D1936813F0010F036C2DD023F448
S315080054D0E06323F0010343F48073036453685905BA
S315080054E005D5036C23F4405343F480530364036CDB
S315080054F013F480531CBF436C23F006034364002453
S31508005500144B80F83C406FF0220111605B68DB06A3
S3150800551002D0114B9A420FD1936813F0405F0BD11A
S31508005520936843F08043936006E043F010030364F6
S31508005530436C43F001034364002003B05DF8044B59
S315080055407047022003B05DF8044B70470000002046
S3150800555083DE1B43002301400020014003689A684C
S3150800556070B50D465105044602D59B68DA0544D444
S31508005570FFF7D2FE226806461368990704D46B1C07
S3150800558023D113689807FCD56FF012031360236CB8
S3150800559043F400732364936813F0405F13D1237EAA
S315080055A08BB9D36A13F4700F02D093685A050AD4DC
S315080055B0236C23F480732364236CDB0403D4236CE9
S315080055C043F001032364002070BD5DB9136813F02E
S315080055D00203D1D1226C84F83C3042F004022264E2
S315080055E0032070BDFFF798FE801BA8422268C3D926
S315080055F0136813F00203BFD1ECE7036C002243F0F3
S31508005600200380F83C200364012070BD0368D86C31
S31508005610704700BF70B590F83C3082B00246012B47
S315080056204FF00000019000F09380012382F83C308F
S315080056300D6813688C68092DA8B228D81E6905EB71
S31508005640450E4FF0070C0CFA0EFC26EA0C061E61F6
S315080056501E6904FA0EF434431C614C68062C04EBEC
S3150800566084012AD85C6B05394FF01F0C88400CFA68
S3150800567001F124EA01015963596B08435863364915
S315080056808B422BD0002082F83C0002B070BD00EBA4
S31508005690400CDE68ACF11E0C4FF0070E04FA0CF451
S315080056A00EFA0CFC26EA0C06DE60DE683443DC6083
S315080056B04C68062C04EB8401D4D90C2C34D81C6B0A
S315080056C023391F26884006FA01F124EA01011963E5
S315080056D0196B0843204918638B42D3D1122D30D059
S315080056E0A5F11003012BCDD81C494B68102D43F4A6
S315080056F000034B60C6D11A4B01F146711B6801F5D0
S315080057002E3101F28331A1FB03139B0C03EB8303B8
S315080057105B000193019B002BB4D0019B013B0193D5
S31508005720019B002BF9D1ADE7DC6A41391F26884079
S3150800573006FA01F124EA0101D962D96A0843D86256
S315080057409DE7D1F8043343F48003C1F8043399E79D
S31508005750022002B070BD00BF0020014000230140B6
S31508005760000000200749CA6803024FF6FF0003F449
S31508005770E0630240134343F0BF6343F40033CB6056
S31508005780704700BF00ED00E01B4BDB68C3F3022344
S3150800579000B5C3F1070EBEF1040F03F1040C28BFD0
S315080057A04FF0040EBCF1060F1CD9A3F1030C4FF001
S315080057B0FF3303FA0CF322EA03024FF0FF3303FA2E
S315080057C00EF321EA030303FA0CF313431B01002823
S315080057D0DBB20ADB00F1604000F5614080F8003377
S315080057E05DF804FB00229446E7E7044A00F00F0040
S315080057F0024413765DF804FB00ED00E0FCEC00E0E3
S31508005800002807DB4109044A00F01F0001238340F2
S3150800581042F82130704700BF00E100E038B5044681
S31508005820FFF77AFD002C6BD023680022022184F84A
S31508005830351084F834201A6822F0010205461A60E9
S3150800584005E0FFF769FD431B052B37D823681A685F
S31508005850D107F6D4D4E90120E16802430A43D4E922
S315080058600451A0692A430A43E1691D6802430A43B1
S3150800587031492940256A2A430A43616A042924D002
S315080058801A605A6922F007021143D8B22B4A5961A5
S315080058901038A2FB0052120929496FF30903895CE3
S315080058A0E1655F2888BF04333F228A40A36500204C
S315080058B09A600123606584F8353038BD03232022B9
S315080058C0626584F83530184638BDD4E90B5129434A
S315080058D0114319605969A26A21F00701114341F081
S315080058E00401002DD1D068B9012A21D032F0020274
S315080058F0CBD1EA01C9D540220123626584F8353047
S31508005900012038BDB0F5005F04D0022AF3D9032A76
S31508005910EFD0BAE7032AB8D801A050F822F000BFA2
S31508005920F7580008F3580008F758000831590008D6
S31508005930B5F1C07FA9D1DEE73F8010F0ABAAAAAACD
S3150800594098A8000870B490F83440856D012C0AD0E8
S3150800595090F835404FF0010C644580F834C005D006
S31508005960002380F83430022070BC7047022680F885
S315080059703560046800264665266826F48026266073
S3150800598063608368402B0EBFA260A160E260C26DAF
S3150800599008BFE1603F239340AB602368026C43F085
S315080059A0160323601AB1236843F0080323602368AB
S315080059B043F001030020236070BC704770B50446AD
S315080059C0866DFFF7A9FC94F83530022B06D08023A4
S315080059D06365002384F83430012070BD23681A6893
S315080059E022F016021A605A6922F080025A61226C65
S315080059F0054642B31A6822F008021A601A6822F0AD
S31508005A0001021A6005E0FFF787FC431B052B10D837
S31508005A1023681B6813F00103F5D1E16D3F228A4024
S31508005A20184601210023B26084F8351084F8343012
S31508005A3070BD032320226265184684F8353000239A
S31508005A4084F8343070BDA26C002AD3D1D6E700BFE3
S31508005A5090F83530022B03D0802343650120704728
S31508005A600268052380F83530136823F00103002007
S31508005A7013607047F0B583B0674A876D16680023D0
S31508005A800193C36D3D6808229A402A42044603D012
S31508005A9001680868400778D401229A402A4203D050
S31508005AA02168496908066AD404229A402A4203D022
S31508005AB02168096889075CD410229A402A4203D0D3
S31508005AC021680868000741D420229A402A4214D047
S31508005AD021680868C00610D5BA6094F83520052AEA
S31508005AE063D00B6813F4802F0B687ED0190340F13E
S31508005AF08980E36B0BB120469847636D23B3636DCA
S31508005B00DA071AD522684549052384F8353013681B
S31508005B10A1FB061623F00103B60A136002E0136818
S31508005B20DB0704D5019B0133B3420193F7D9012260
S31508005B30002384F8352084F83430E36C23B12046FA
S31508005B4003B0BDE8F040184703B0F0BDBA600A6874
S31508005B5012F4802F0A6822D1D20503D40A6822F0EB
S31508005B6008020A60226C002AAED020469047E36DF0
S31508005B70AAE7BA60626D42F0040262659CE7BA6001
S31508005B80626D42F0020262658EE7086820F0040042
S31508005B900860BA60626D42F0010262657CE7110333
S31508005BA0E0D5A26C002AE0D18EE70A6822F0160238
S31508005BB00A604A6922F080024A61226C3AB30A688E
S31508005BC022F008020A603F2202FA03F3216DBB6045
S31508005BD00122002384F8352084F834300029B3D014
S31508005BE0204603B0BDE8F040084713F4807380D11F
S31508005BF00A6822F010020A60012284F8352084F827
S31508005C00343076E7636C002B7FF475AF75E7A26CCA
S31508005C10002AD4D1D7E700BF00000020B5814E1B6B
S31508005C2090F83500704700BF2DE9F04F00230C6847
S31508005C30DFF8C8A185B04FF0010B894602E00133B1
S31508005C40102B7DD00BFA03F202EA0408A243F6D120
S31508005C50D9F8041001F0030C5A0003250CF1FF369D
S31508005C609540012E6FEA05056DD9BCF1030F40F08A
S31508005C70B48006680CFA02F235402A4311F4403F14
S31508005C800260DCD000220392DAF8442042F4804213
S31508005C90CAF84420DAF8442002F480420392039AB0
S31508005CA023F0030202F1804203F003060F2702F5F0
S31508005CB09C32B60007FA06FC4D4F9568B84225EAAD
S31508005CC00C0515D007F58067B84274D0494FB8421D
S31508005CD077D0DFF82CC1604579D0DFF828C1604558
S31508005CE00CBF4FF0040C4FF0070C0CFA06F63543C0
S31508005CF09560414A9268CE026FEA08053E4E54BF47
S31508005D002A4048EA0202B260F2683B4E8F0254BF4C
S31508005D102A4048EA0202F26072688E03364E54BF81
S31508005D202A4048EA020272603268C90303F1010395
S31508005D30314954BF2A4048EA0202102B0A6081D131
S31508005D4005B0BDE8F08F866806EA050ED9F80C603E
S31508005D50964046EA0E068660466826EA080EC1F3AD
S31508005D6000169E4046EA0E064660C66806EA050E16
S31508005D70D9F80860964046EA0E06BCF1020FC660DE
S31508005D807FF477AFDE0800EB86060196376AD9F806
S31508005D901060009703F0070E4FEA8E0E0F2706FADB
S31508005DA00EF607FA0EFE009F27EA0E0E019F46EA38
S31508005DB00E063E625DE74FF0010C0CFA06F6354317
S31508005DC096E74FF0020C0CFA06F6354390E74FF0CB
S31508005DD0030C0CFA06F635438AE7C66806EA050E8A
S31508005DE0D9F80860964046EA0E06C66041E700BF45
S31508005DF00000024000080240003C01400038024012
S31508005E00000C0240001002400369194214BF012029
S31508005E100020704702B9090481617047436901EAA5
S31508005E20030221EA030141EA02418161704700BF8A
S31508005E30002800F0B88070B590F83D30044603F0AD
S31508005E40FF02002B00F098802368242284F83D2066
S31508005E501A6822F001021A601A6842F400421A60AF
S31508005E601A6822F400421A6001F004FB4F4B656879
S31508005E709D424FD84E4B98427CD94E4B6A00A3FBA5
S31508005E800035431EB3FBF2F32268516821F03F0147
S31508005E9041EA95415160116A4FEA954C0CF1010CA3
S31508005EA021F03F0141EA0C011162D16940F6FC700C
S31508005EB0013321F44F41034221F0FF0161D104234C
S31508005EC00B43D361D4E907301168034321F0C001BD
S31508005ED00B4313609168D4E9030321F40341034398
S31508005EE021F0FF010B439360D4E90530D1680343E1
S31508005EF021F0FF010B43D3601168002341F0010133
S31508005F0020201160236484F83D00236384F83E3022
S31508005F10184670BD284B98422CD92268254B274E27
S31508005F20A3FB003C431E506820F03F0040EA9C401B
S31508005F3050604FEA9C414FF4967000FB01F1A6FBB6
S31508005F400161106A890920F03F000131014311629D
S31508005F50D169A06821F44F4121F0FF01A0B905EBF2
S31508005F604505B3FBF5F30133C3F30B03CBB143F498
S31508005F700043A5E7012070BD80F83C20FEF782FCAF
S31508005F8062E7C3F30B039BE705EB850505EB850580
S31508005F90B3FBF5F30133C3F30B0313B143F44043E7
S31508005FA08EE701238CE70120704700BFA086010019
S31508005FB07F841E0083DE1B43FF083D00D34D62101D
S31508005FC0F0B482B00024019490F83D40BDF81CC09E
S31508005FD0202C26D1304C314D2468E408A5FB045406
S31508005FE0240A04EB840404EB8404019403E00468A3
S31508005FF0A569AE0719D5019C013C0194019C002CAA
S31508006000F5D12023046380F83D3080F83E40036CC8
S3150800601080F83C4043F020030364012002B0F0BC42
S315080060207047022002B0F0BC704790F83C50012D32
S31508006030F7D02568ED0703D4256845F001052560E6
S315080060402568174F25F400652560069D45622225BB
S3150800605080F83D500026402580F83E500664A0F89A
S315080060602AC0458DC76241648264C3640665226896
S31508006070ADB242F4806205852260226842F48072DD
S31508006080226080F83C601DB1636843F4E063636096
S31508006090002002B0F0BC70470000002089B5F81453
S315080060A00000FFFF704700BF704700BF704700BF82
S315080060B0704700BF704700BF704700BF704700BFFA
S315080060C090F83D20016D034659B9C26C0168012A52
S315080060D0826C0DD0C2F307220A61026D0132026595
S315080060E07047016D012909D0016D02290ED070474C
S315080060F0D2B20A61026D023202657047826C01688B
S31508006100D2B20A61026D013202657047D2B2222A02
S315080061101FD0418D89B2C1B9418D89B20029E6D116
S31508006120212AE4D1026810B5546824F4E064546066
S31508006130146844F4007414602022016380F83D203A
S3150800614080F83E10FFF7BAFF10BD212A0AD05B8DF2
S31508006150704701680A6842F480720A60026D01326B
S3150800616002657047416A026811F8010B10615A8D81
S315080061705962013A92B25A85704700BF704700BF0C
S31508006180704700BF704700BF70B53A4B3A4A1B6864
S31508006190806B82B0DB080021A2FB032301911B0A56
S315080061A090F83D10026803EB8303C3EBC303C9B23F
S315080061B0019305E0019B013B019313689B0506D5F6
S315080061C0019B002BF6D1036C43F020030364D0E94E
S315080061D00D4344B30025E563F3B11668DD6326F481
S315080061E0806616604585256500241C65136823F0BE
S315080061F00103136090F83D30602B29D001F0280187
S31508006200282918D02022002380F83D2080F83E3027
S31508006210FFF7B6FF02B070BD156825F480651560F6
S3150800622043852365E2E7F3B11568DC6325F48065E9
S3150800623015604485D8E7136843F0010313601368B3
S31508006240002443F480631360046380F83D10DFE79D
S315080062500023202280F83D2080F83E300364FFF7B3
S3150800626091FF02B070BD146824F4806414604385FD
S31508006270BCE700BF0000002089B5F81410B590F8F7
S315080062803D2090F83E30102B0446D2B239D0D9B210
S31508006290402936D002F02801282923683CD05968BD
S315080062A0080507D4602A05D02021002284F83D106D
S315080062B084F83E20002222635A6812F4006233D121
S315080062C094F83D10602974D05A69500605D5626A5B
S315080062D01B691370636A013363622046FFF750FF38
S315080062E0236C190704D02268536823F4E0635360CB
S315080062F094F83D30226C5207DBB201D5282B2ED0FC
S3150800630010BD222AC6D123681A6822F400621A60D0
S315080063105A681205C8D5CDE70022226384F83D10D5
S315080063205A6812F40062CBD05A68606B22F4006295
S315080063305A6090F83530012B1ED0294B0365FFF7BC
S3150800634087FB0028CCD02268606B1368202123F0D5
S315080063500103136084F83D10036D9847C0E70023D6
S315080063602049E16220222363204684F83D2084F8F0
S315080063703E30FFF7A1FE10BDA06B194B0365FFF772
S3150800638067FB0028ACD023685A69510606D5626AAD
S315080063901B691370626A2368013262621A68A06B0D
S315080063A022F0010220211A6084F83D10036D9847F7
S315080063B096E7202184F83D1022645A69520606D5CC
S315080063C0626A1B691370626A2368013262621A681C
S315080063D022F0010220461A60FFF7D4FE80E700BFCC
S315080063E0896100080000FFFFF0B503685F68C56AA9
S315080063F090F83E2090F83D10102A04468FB0C9B296
S31508006400D0B223D0402821D0226C002A00F0D780B1
S315080064105A69002012F0020500F09780BD0540F188
S315080064209680226C02B1986994F83D2002F0280201
S31508006430282A00F04E8200220C9259690C919B6919
S315080064400C930C9B84F83C200FB0F0BD9E695A69EA
S3150800645012F0010F20D1B5F52A0FF5D0B5F12A4F64
S31508006460F2D012F0080540F0D78012F0020F36D0AD
S3150800647017F4007F33D094F83E20E06A266B94F830
S315080064803D102229D2B200F0FD810A955A690A9276
S315080064909B690A930A9BD7E7BD0520D5E26AB2F540
S315080064A02A0F00F01382E26AB2F12A4F04BF0822CB
S315080064B0E26294F83E20402A00F001822269B2F591
S315080064C0804F00F0C581226D002A40F01682626C6A
S315080064D0D21102F0060242F0F0021A61B4E776071A
S315080064E070D55D682D05AFD4160602F0040540F197
S315080064F047817A0540F14481002D40F0448194F8A3
S315080065003D20208D94F83E10E56AD2B2C9B2002823
S3150800651040F09C82212A00F06683402994D1222AE1
S3150800652092D1628D92B2002A00F01D8394F83E2023
S31508006530402A00F03181626A12F8011B1961638DE5
S315080065406262013B9BB263857EE7D60677D401F08B
S31508006550F701212902F0040000F0CD80550640F12C
S315080065600081790540F1FD80002840F0FD8094F80F
S315080065703D10628D92B2C9B2002A3FF465AF626AD5
S315080065801B691370638D626A013B9BB26385638DD9
S3150800659001329BB26262002B7FF456AF2A297FF440
S315080065A053AF226853682225282123F48063536059
S315080065B02046256384F83D10FFF77AFD44E798697D
S315080065C05A6927E759680D053FF53EAF500602F0B0
S315080065D0040100F1E78000293FF436AFBE057FF5D8
S315080065E033AFE06A628D616A92B2042A00F0FC81D8
S315080065F0628D92B2032A00F03B82628D92B2022A21
S3150800660000F06D821B690B70638D626A013B013273
S315080066109BB26262638517E7BD057FF560AF626C62
S31508006620616BD2B21A61002900F02381CA6B002A75
S3150800663000F01F815A6842F400625A6004E7B80500
S3150800664085D594F83D605A6822F4E0625A600D9543
S315080066505A690D921A6842F001021A600D9A1A6870
S3150800666022F480621A605A681105F6B200F1BF80FA
S31508006670638D9BB213B323685A6952070AD5626AB7
S315080066801B691370628D636A013A591C92B22368BA
S31508006690616262855A69570609D5626A1B69137071
S315080066A0638D626A013B01329BB262626385638DC8
S315080066B09BB21BB1236C43F004032364236C002BA9
S315080066C040F0C0802A2E00F04B8194F83D30282BEC
S315080066D000F05681236B222B02D0222E7FF4B4AE13
S315080066E0002320222363204684F83D2084F83E3088
S315080066F0FFF7DEFCA8E6150627D57A0525D538BBAB
S3150800670094F83D00628D92B2C0B2002A3FF49CAE66
S31508006710626A12F8015B1D616262628D013A92B289
S315080067206285628D92B2002A7FF48EAE29287FF4A4
S315080067308BAE5A68282522F480625A602046216367
S3150800674084F83D50FFF7B2FC7EE600283FF47CAEA5
S31508006750BE057FF579AE628D92B2002A3FF474AE1B
S31508006760E9E600283FF470AEBA057FF56DAE628D96
S3150800677092B2002A3FF468AE626A1B69137043E757
S31508006780002D3FF461AEBE057FF55EAE212900F00F
S31508006790328140287FF458AE20460FB0BDE8F0405D
S315080067A0FFF78EBC7A057FF516AF00297FF416AF82
S315080067B094F83D20222A7FF447AE628D92B2032ACE
S315080067C040F22882626A1B691370638D626A013B14
S315080067D09BB26385638D9BB20132032B62627FF4A1
S315080067E033AE2268536823F4806353602CE606F0C0
S315080067F0F702222A00F09380606B0268526892B210
S315080068006285628D92B21AB1226C42F00402226449
S315080068105A6822F400625A60FFF702FA012808D083
S31508006820606B9B4B0365FFF713F910B1606B036D43
S315080068309847638D9BB2002B7FF41DAF236C002B0A
S315080068403FF443AF20460FB0BDE8F040FFF716BD52
S3150800685094F83D20212A626C16BF42F0010202F02C
S31508006860FE02D2B21A61626B1AB1D26B002A7FF4A9
S31508006870E1AEA26B002A3FF4E7ADD26B002A7FF4A3
S31508006880D9AEE1E5216D11B9402A00F0D880226D14
S3150800689022B92169B1F5404F00F0DC80628D92B2D1
S315080068A0002A7AD103925A6903929A690392039A43
S315080068B01A6842F400721A6000232365C4E5226D43
S315080068C03ABB626C02F0FE021A61BDE50122E26281
S315080068D0EFE55A6822F480625A60070680F00401E0
S315080068E04FF0000354BFA289228B84F83C30C1F3D1
S315080068F080012046FFF7DEFBA6E5226D012A7FF41C
S31508006900A3AD626CD21102F0060242F0F1021A61DE
S315080069109AE5626C42F00102D2B21A6194E5A06B64
S315080069200268526892B26285628D92B21AB1226C7E
S3150800693042F0040222645A6822F400625A60FFF7A1
S315080069406FF901283FF494AEA06B514B0365FFF72E
S315080069507FF800283FF48CAEA06B036D984787E656
S3150800696028222363204684F83D20FFF7A1FB94F8EC
S315080069703D30282B04D0236B222B7FF465ADAFE680
S3150800698000234449E16220222363204684F83D20FF
S3150800699084F83E30FFF790FB56E5628D92B2012AE5
S315080069A07CD0628D92B2022A00F0E2801A6842F424
S315080069B080621A605A6812050ED5202800F2A68150
S315080069C0072840F29F81344A0838C240D70703D5C2
S315080069D05A6842F480525A60002209925A6909920A
S315080069E09B690993099B67E75A6822F480625A6093
S315080069F01B690B7008E6E16A94F83D20212A7FF4AA
S31508006A0023AD628D92B2002A7FF495AD082900F075
S31508006A10D280202900F0CF8011F5803F00F0CB808E
S31508006A20596821F4E061596011202023206384F815
S31508006A303E20204684F83D30FFF734FB04E50191FB
S31508006A405A6901929B690193019BFDE4212A7FF40F
S31508006A5064AD66E502925A6902929A690292029AAE
S31508006A601A6842F480721A60236D01332365EBE4D9
S31508006A705A68042822F480625A603FF4C3AD02289B
S31508006A803FF4C0AD1A6822F480621A60BAE500BF06
S31508006A90896100080000FFFF0101000110F5803F31
S31508006AA000F0FF80082800F0EC80202800F0E9803C
S31508006AB0122E00F04781102800F246819D4A0241B5
S31508006AC0D20700F141811A6842F480621A600022F6
S31508006AD006925A6906929B690693069BECE601386C
S31508006AE00F2809D8DFE800F03A35083508080808FD
S31508006AF0080808080808083A1A6842F400721A6072
S31508006B001B690B70638D626A2168013B9BB26385C2
S31508006B100B69511C61625370638D2168626A013B7F
S31508006B209BB263854B68013223F44073202062626E
S31508006B304B6084F83D0094F83E30402B00F0D98035
S31508006B400022122384F83E2020462363FFF7ACFA7E
S31508006B507AE41A6842F480621A60D1E71A6822F465
S31508006B6080621A60CCE75A6822F480625A606BE445
S31508006B70102800F2AA80704AC240D70740F1A580C3
S31508006B801A6842F480621A605A6815050BD50728F8
S31508006B9040F2CC80694A0838C240D10703D55A6802
S31508006BA042F480525A60002208925A6908929B69F8
S31508006BB00893089B80E6596821F4E06159601968D2
S31508006BC00022202041F400711960226384F83D00F8
S31508006BD094F83E3084F83E20402B20467FF42CAFB4
S31508006BE0FFF76CFA30E4082DE5D0202DE3D015F533
S31508006BF0803FE0D05A6822F4E0625A6011200021F2
S31508006C002023206384F83E10204684F83D30FFF7A1
S31508006C1049FA19E4E06A0228A5D0012AA3D8484A05
S31508006C200B91126846F2A810B2FBF0F202EB820250
S31508006C300B9204E01A6812F4007200F08A800B9A2C
S31508006C40013A0B920B990029F4D1226C606A42F042
S31508006C50200222645A6822F4E0625A601B690370B3
S31508006C60638D626A013B01329BB2202063856262B2
S31508006C7084F83D00204684F83E10FFF781FAFFF7B6
S31508006C80E3BB1A68002122F480621A6007915A69E8
S31508006C9007929A690792079A1A6842F400721A606C
S31508006CA00AE61A6822F480621A605A6812F40062C8
S31508006CB031D01A68002122F480621A6004915A6958
S31508006CC004929B690493049BF6E51A6822F4806291
S31508006CD01A601A6842F400621A605A6816057FF547
S31508006CE062AF20287FF653AF10F5803F7FF45BAF85
S31508006CF055E7002384F83E3020462363FFF73EFA23
S31508006D00FFF7A2BB01287FF467AE61E610F5803F66
S31508006D107FF462AE5CE605925A6905929A69059215
S31508006D20059A1A6842F400721A60C5E501287FF4CC
S31508006D303AAF34E7EBFFFEFF140001000101000142
S31508006D400000002001289CD11A6822F480621A608B
S31508006D50BDE61968606A21F480611960596821F4F2
S31508006D60E06159601B690370638D013B20219BB26A
S31508006D70638584F83D10636A94F83E100133402910
S31508006D8063627FF4DEAE84F83E2020462263FFF776
S31508006D90F5F9FFF759BB00BF70B502685369546827
S31508006DA090F83E10DD0582B0C9B208D5E40526D5AF
S31508006DB06FF480749E05546140D5032505E013F4ED
S31508006DC0007516D0E5051AD502256FF400745461CE
S31508006DD05C0518D41E0504D56FF4006345F0080554
S31508006DE05361036C2B43036402B0BDE87040FFF7A0
S31508006DF045BA5E0505D41E0501D5E305ECD402B0F7
S31508006E0070BDE405FBD503F40064438D90F83DC0DE
S31508006E10066B20299BB25FFA8CFC14D06FF4806352
S31508006E20102945F00405536101D0402911D1136892
S31508006E3043F400731360002CCED1D2E75C054FF003
S31508006E400105E0D4C6E73BB16FF48063536145F0B2
S31508006E500405002CC5D0BFE70CF0F703212B0CD096
S31508006E60BCF1280FF0D1212E07D06FF4806353614F
S31508006E7045F00405002CAFD1B3E790F83D30C16A60
S31508006E800829DBB20CD020290AD0212B23D06FF495
S31508006E90806353610CB102689EE7002DA1D1AEE76D
S31508006EA0282BF2D1184BC3625368019023F4E06390
S31508006EB053606FF480635361136823F4806313602F
S31508006EC000232022036380F83D2080F83E30FFF738
S31508006ED0F3F80198DEE70C49C1620363202380F8C2
S31508006EE03D30002380F83E305368019023F4E06378
S31508006EF053606FF480635361136823F480631360EF
S31508006F00FFF7D4F80198C5E70000FFFF002800F056
S31508006F10D8812DE9F0410368DD0782B004462FD5F4
S31508006F209D498A6802F00C02042A00F0EC808A68FF
S31508006F3002F00C02082A00F0E2806368B3F5803F8D
S31508006F4000F0EB80B3F5A02F00F07381924D2A680C
S31508006F5022F480322A602A6822F480222A60002BD2
S31508006F6040F0E080FEF7D8F9064605E0FEF7D4F9CA
S31508006F70801B642800F200812B689F03F6D42368DF
S31508006F809D0728D5844A916811F00C0F00F09B8064
S31508006F90916801F00C01082900F09180E368002B44
S31508006FA000F00C817D4B7C4E01221A60FEF7B4F985
S31508006FB0054605E0FEF7B0F9401B022800F2DC8022
S31508006FC033689F07F6D53368226923F0F80343EA46
S31508006FD0C203336023681A075CD45D073AD56E4A44
S31508006FE0136C13F0805340F088800193136C43F0C0
S31508006FF080531364136C03F080530193019B01259E
S31508007000674E3368D80540F1A780A368012B00F0C6
S31508007010B780052B00F01D815F4E326F22F001020A
S315080070203267326F22F004023267002B40F0AD80DF
S31508007030FEF772F941F28838074605E0FEF76CF963
S31508007040C01B404500F29880336F9B07F6D4002D8D
S3150800705040F0F980A369CBB14F4DAA6802F00C0243
S31508007060082A00F0BC80022B4C4B4FF000021A662F
S3150800707000F0F980FEF750F9044604E0FEF74CF9F3
S31508007080001B022878D82B689B01F7D4002002B091
S31508007090BDE8F0816369FBB1404B3F4E0122C3F85E
S315080070A0802EFEF739F9054604E0FEF735F9401B50
S315080070B0022861D8736F9B07F7D523688DE7526856
S315080070C051023FF56BAF344A1268920738D5E26829
S315080070D0012A35D00120DAE7304A2F4EC2F8803E21
S315080070E0FEF71AF9054604E0FEF716F9401B0228D2
S315080070F042D8736F9F07F7D4DFE7002580E74A6811
S3150800710051027FF51AAF244A126892037FF538AF09
S315080071106268002A7FF434AFDCE71F4A136843F439
S3150800712080331360FEF7F8F81B4E054604E0FEF7B9
S31508007130F3F8401B64281FD833689B03F7D51EE76E
S31508007140154920690A6822F0F80242EAC0020A6074
S315080071501A077FF542AF9DE7336843F480733360BF
S31508007160FEF7DAF807463368D9053FF54EAFFEF75E
S31508007170D3F8C01B0228F6D9032002B0BDE8F08177
S31508007180054A136F43F001031367FEF7C5F8024F6C
S31508007190064641F288380AE00038024000004742B5
S315080071A000700040FEF7B8F8801B4045E4D83B6FF6
S315080071B09A07F7D5002D3FF44DAF44E0424A434EB7
S315080071C01360FEF7A9F8054604E0FEF7A5F8401B8C
S315080071D00228D1D833689907F7D42368FBE6012B30
S315080071E03FF478AF6B68E26903F4800191427FF45B
S315080071F071AF226A03F03F0191427FF46BAF616A77
S3150800720047F6C0721A40B2EB811F7FF463AFA26AD9
S31508007210520803F44031013AB1EB024F7FF45AAFFA
S31508007220E26A03F07063B3EB026F14BF012000201B
S315080072302DE7264B1A6842F480221A601A6842F42F
S3150800724080321A606EE7214A136C23F08053136468
S3150800725000E71E4B1A6F42F004021A671A6F42F0D3
S3150800726001021A6791E7FEF757F8064605E0FEF7AA
S3150800727053F8801B02283FF67FAF2B689901F6D496
S31508007280D4E90731626A0B4343EA8213D4E90A2038
S3150800729052080D4943EA0063013A43EA02430122D0
S315080072A06B600A66FEF738F8084D044605E0FEF7F7
S315080072B033F8001B02283FF65FAF2B689A01F6D514
S315080072C0E4E60120704700BF00004742003802404C
S315080072D0164908B58B6803F00C03042B1BD0082B42
S315080072E001D0134808BD4A684B68496813F48003FF
S315080072F002F03F0211D10E48C1F38811A1FB00012B
S31508007300FCF78EFF094B5B68C3F3014301335B004F
S31508007310B0FBF3F008BD074808BD0648C1F388115D
S315080073200023A1FB0001FCF77BFFEBE700380240D6
S315080073300024F400001BB700002800F08780484AA4
S31508007340136803F007038B422DE9F0410D46044606
S3150800735009D2CBB21370136803F007038B4202D02D
S315080073600120BDE8F0812368980714D5590704D58C
S315080073703C498A6842F4E0528A601A0704D53949BA
S315080073808A6842F460428A603649A0688A6822F0B0
S31508007390F00202438A60DF0721D56268012A57D0C6
S315080073A0931E012B2F4B1B684DD99907D8D52D4E07
S315080073B0B36823F003031343B360FDF7ADFF41F24F
S315080073C08838074604E0FDF7A7FFC01B404544D8A8
S315080073D0B368626803F00C03B3EB820FF3D1204A5B
S315080073E0136803F00703AB4206D9EBB213701368B0
S315080073F003F00703AB42B3D123685A0706D51949E8
S31508007400E0688A6822F4E05202438A601B0707D5BF
S31508007410144A2169936823F4604343EAC1039360DD
S31508007420FFF756FF0F4A104C92681049C2F3031231
S315080074300346A25C0E48D34000680B60FDF7D6FBF6
S315080074400020BDE8F0819801B1D489E70120704792
S31508007450044B1B689E03AAD482E7032081E700BF7A
S31508007460003C02400038024088A8000800000020BE
S3150800747008000020044B05499B68054A0868C3F3C1
S315080074808223D35CD84070470038024000000020B1
S3150800749080A80008044B05499B68054A0868C3F399
S315080074A04233D35CD84070470038024000000020C1
S315080074B080A800080E4B0F2210B402609A680D4C83
S315080074C002F0030242609A6802F0F00282609A684B
S315080074D002F4E052C2609B68DB0803F4E0530361E0
S315080074E023685DF8044B03F007030B60704700BF81
S315080074F000380240003C02402DE9F04182B01D46AA
S3150800750016460C460746FDF707FF35442D1AFDF7C4
S3150800751003FF274B1B68C3F3CB3305FB03F38046F6
S31508007520019339688B6834EA030305D1731C07D1C4
S315080075308B6834EA0303FBD0002002B0BDE8F08173
S31508007540FDF7EAFEA0EB0800A84208D2019B002B33
S31508007550019B03F1FF3308BF00250193E1E7D7E953
S3150800756000315A68B1F5827F22F0E0025A6013D0E2
S31508007570BA6AB2F5005F07D11A6822F400521A6097
S315080075801A6842F400521A600122002387F8512033
S3150800759087F850300320D0E7BA68B2F5004F02D01A
S315080075A0B2F5806FE4D11A6822F040021A60DFE76C
S315080075B00000002038B513464268B2F5827F0446BB
S315080075C006D00A460121FFF797FF78B9002038BD93
S315080075D08268B2F5004F1BD0B2F5806F0CD00A4610
S315080075E020468021FFF788FF0028EFD0636D43F01F
S315080075F020036365032038BD05680A46296821F01B
S31508007600400129600121FFF777FF0028DED0EDE76A
S315080076100068026822F0400202600A46204680217D
S31508007620FFF76AFF0028D1D0E0E700BF30B5164B58
S31508007630164D1B68A5FB035C83B04FEA5C5C4FF4F0
S315080076407A7303FB0CF301934368B3F5827F044610
S3150800765007D10CE0019B2268013B019393681B0646
S3150800766002D5019B002BF5D1002003B030BD13468F
S315080076700A468021FFF740FF0028F5D0636D43F0E6
S31508007680200303206365F0E700000020819F5E1653
S3150800769000285CD070B50446406A002847D000230D
S315080076A0C4E9043394F851300022A26203F0FF01C2
S315080076B0002B42D094462168A568A269266A02234F
S315080076C084F851300B6823F040030B60636805F4B7
S315080076D0044503F482732B43E56805F400652B43E0
S315080076E0256905F002052B43656905F001052B435D
S315080076F0E56906F0800E02F4007605F03805334396
S315080077002B43120C00F0100043EA0E0302F00402A9
S3150800771043EA0C0302430B604A60CB69002023F45A
S3150800772000630122CB61606584F8512070BD6368EF
S31508007730B3F5827FB6D0E061B4E7204684F85010EE
S31508007740FDF7A2F9D4E9090303F4005CB3E70120C5
S31508007750704700BF38B5044690F8500001286AD033
S31508007760012084F8500094F85100656801285FFAF2
S3150800777080FC0DD0B5F5827F04D00220002384F862
S31508007780503038BDA0680028F7D1BCF1040FF4D1F9
S31508007790002959D0002A57D0002B55D094F851000B
S315080077A0216304284FF000051CBF052084F851000A
S315080077B06565E06CE386E38794F85110A386C4E90F
S315080077C01055A387A2630565204DE38F0429204938
S315080077D018BF29461F4D01641F49C1641F4918BFB8
S315080077E02946C16321689BB20C31FEF7ABF8014606
S315080077F018BB2268A06C536843F001035360E38EFC
S315080078000C32C0E90F11C0E913119BB2216BFEF7C8
S3150800781099F890B923681A68520603D41A6842F090
S3150800782040021A605A6842F020025A605A6842F0CA
S3150800783002025A60A2E7022038BD636D012243F0B6
S315080078401003636584F85120012097E7E57800085E
S31508007850D578000885790008F578000819790008B0
S3150800786090F85020012A0DD010B4046862680346C7
S31508007870002142F00302626083F8501008465DF862
S31508007880044B70470220704738B50446806C10B127
S31508007890FEF794F8A0B90025E06C38B1FEF78EF82B
S315080078A020B1636D43F010030125636522685368B0
S315080078B0012123F00303536084F85110284638BD8C
S315080078C0636D43F0100301256365E5E7704700BF64
S315080078D0704700BF08B5806BFFF7FAFF08BD00BF09
S315080078E0704700BF08B5806BFFF7FAFF08BD00BFF9
S315080078F0704700BF806B026808B5536823F003031E
S315080079005360436D012143F01003436580F851101D
S31508007910FFF7EEFF08BD00BF38B50546846BFDF7D7
S31508007920FBFC2B681B68DB0517D4236859680246DD
S31508007930A06821F020015960B0B1596821F0010111
S31508007940596064212046FFF735FE50B9012300220D
S31508007950E28784F85130636D7BB92046FFF7B6FF9E
S3150800796038BD20236365F1E76168B1F5827FE4D10C
S31508007970596821F003015960E3E72046FFF7B8FF8D
S3150800798038BD00BF38B50546846BFDF7C5FC2B68C6
S315080079901B68DB051BD402462068436823F02003D6
S315080079A0436064212046FFF741FE18B1636D43F03A
S315080079B02003636521684B68002223F00303012036
S315080079C04B60E286E28784F85100636D1BB9204656
S315080079D0FDF716F838BD2046FFF78AFF38BD00BF09
S315080079E030B502685168936813F0400F85B00446B5
S315080079F0C3F3801516D113F0010F53D198076AD532
S31508007A0008067CD4980613D4DB0568D58D0666D59A
S31508007A10636D002043F0080363650390936803933E
S31508007A20039B18E0980742D5080668D4980640D5FF
S31508007A30880654D5002D56D1606D40F0010060656A
S31508007A400020029090680290106820F040001060B4
S31508007A500298DB05DCD4636D002B40D05368012007
S31508007A6023F0E0038D07536084F8510059D053681A
S31508007A70E06C23F00303536040B12C4B0365FDF71C
S31508007A80E7FF18B1636D43F040036365A06C30B33C
S31508007A90264B0365FDF7DCFF08B3636D43F040032F
S31508007AA063651CE011F0400FA8D0036C29E09D0621
S31508007AB017D4880613D594F85100032817D0606D9B
S31508007AC040F00400606500200090D068009090683F
S31508007AD000900098BDE7980696D58806ACD405B000
S31508007AE030BD8D06FBD594F8510003280DD100232F
S31508007AF00193D368019393680193019BEFE7636C45
S31508007B00204605B0BDE830401847606D40F00400D7
S31508007B10606500200090D0680090906800900098FA
S31508007B208AE72046FFF7E4FED9E700BF317B000865
S31508007B3008B5806B0023C387C386FFF7D9FE08BD47
S31508007B40036A23F0010370B40362036A4468826916
S31508007B500D6822F073022A438D6823F002032B4333
S31508007B600B4DA84206D049684460826170BC4163E7
S31508007B7003627047CD6823F008032B43D1E9055605
S31508007B8024F44074354323F004032C43EBE700BF89
S31508007B9000000140036A23F4807370B40362036A29
S31508007BA04468C2690D6822F073022A438D6823F47B
S31508007BB0007343EA05230C4DA84206D04968446081
S31508007BC0C26170BCC16303627047CD6823F4006369
S31508007BD043EA0523D1E9055624F44054354323F4F2
S31508007BE0806344EA0514E9E700000140036A23F4C8
S31508007BF0805330B40362036A4468C2690D6822F48C
S31508007C00E64242EA05228D6823F4005343EA053327
S31508007C10074DA84206D049684460C26130BC016479
S31508007C20036270474D6924F4804444EA8514F2E7F8
S31508007C300000014090F83D30012B27D10368144914
S31508007C40022280F83D20DA688B4242F00102DA60AF
S31508007C5011D0B3F1804F0ED00E4A93420BD002F5E5
S31508007C608062934207D002F58062934203D002F500
S31508007C709A32934204D19A6802F00702062A03D080
S31508007C801A6842F001021A60002070470120704706
S31508007C90000001400004004091BB90F83E30012BE3
S31508007CA036D1022380F83E30036801F01F01186AB6
S31508007CB001228A4020EA02001862186A2249024311
S31508007CC08B421A622AD0B3F1804F0ED01F4A9342D4
S31508007CD00BD002F58062934207D002F58062934288
S31508007CE003D002F59A32934204D19A6802F0070249
S31508007CF0062A03D01A6842F001021A60002070476B
S31508007D00042910D0082916D090F84130012B01D04B
S31508007D1001207047022380F84130C5E75A6C42F4C7
S31508007D2000425A64E1E790F83F30012BF0D1022374
S31508007D3080F83F30B8E790F84030012BE8D10223AD
S31508007D4080F84030B0E700BF000001400004004062
S31508007D50704700BFFFF7A0BF90F83C20012A6ED0FD
S31508007D600346026830B40120022483F83C0083F8F5
S31508007D703D40946824F47F4424F0770494600C68AA
S31508007D80602C76D011D8402C5BD02ED8202C04D06D
S31508007D9000F2888034F010011FD1916821F070013B
S31508007DA0214341F00701916016E0B4F5805F13D0D6
S31508007DB0B4F5005F33D0702C0FD1D1E90150946827
S31508007DC02843CD6824F47F4140EA052008439060A3
S31508007DD0916841F07701916000200121002283F823
S31508007DE03D1083F83C2030BC7047502CF5D14868CC
S31508007DF0CC68116A21F00A010843116A21F00101D1
S31508007E001162916921F0F00141EA04119161106251
S31508007E10916821F0700141F057019160DCE7D1E9E2
S31508007E20015094682843CD6824F47F4140EA052030
S31508007E3008439060916841F480419160CCE7022044
S31508007E4070474868CC68116A21F00A010843116A2C
S31508007E5021F001011162916921F0F00141EA041152
S31508007E6091611062916821F0700141F047019160BB
S31508007E70B2E74C68CD68116A21F010011162906969
S31508007E80116A20F4704021F0A00141EA041140EA89
S31508007E90053090611162916821F0700141F0670127
S31508007EA0916099E7302C3FF478AF96E7704700BFAA
S31508007EB0704700BF704700BF704700BF03681A6964
S31508007EC0910710B5044602D5DA6892075FD41A6995
S31508007ED0500702D5DA68510746D41A69120702D53F
S31508007EE0DA6810072ED41A69D20602D5DA68D006DF
S31508007EF018D41A69D10702D5DA68D2075DD41A6987
S31508007F00100602D5DA6811065FD41A69520602D538
S31508007F10DA68500661D41A69910602D5DA689206BB
S31508007F2043D410BD6FF01001082219612277DB696E
S31508007F3013F4407F204664D0FFF7BAFF0022236877
S31508007F402277D6E76FF00801042219612277DB69E8
S31508007F509907204652D1FFF7A9FF2046FFF7AAFF47
S31508007F60002223682277BEE76FF004010222196116
S31508007F7022779B6913F4407F20463CD1FFF796FF92
S31508007F802046FFF797FF002223682277A5E76FF0C0
S31508007F9002010122196102779B699B0725D0FFF729
S31508007FA087FF00222368227791E76FF02002204698
S31508007FB01A61BDE8104000F0C5B96FF001021A61F8
S31508007FC02046FCF727FD236899E76FF080021A61BF
S31508007FD0204600F0B9F9236897E76FF040021A6166
S31508007FE02046FFF769FF236895E7FFF75FFF2046FE
S31508007FF0FFF760FFD5E7FFF75BFFC4E7FFF758FF1A
S31508008000AEE7FFF753FF2046FFF754FF96E700BF9A
S3150800801070B4244E0A6803688C684D69B0422CD047
S31508008020B0F1804F17D0A6F57C46B04213D006F5BE
S315080080308066B0420FD006F58066B0420BD01A4E65
S31508008040B0420CD006F58066B04208D006F58066C8
S31508008050B04208D103E04E6823F070033343C96881
S3150800806023F440730B4323F080032B43036001235F
S31508008070C462826270BC436170474E6823F0700325
S315080080803343CE6823F44073334323F080032B43F2
S315080080900360C46282620B690363012370BC436197
S315080080A0704700BF000001400040014050B310B5C2
S315080080B090F83D30044603F0FF02F3B1214602234F
S315080080C084F83D3051F8040BFFF7A2FF012384F82A
S315080080D0463084F83E3084F83F3084F8403084F8DF
S315080080E0413084F8423084F8433084F8443084F8C8
S315080080F0453084F83D30002010BD80F83C20FCF760
S315080081003FFEDBE70120704750B310B590F83D30CD
S31508008110044603F0FF02F3B12146022384F83D30FA
S3150800812051F8040BFFF774FF012384F8463084F8EE
S315080081303E3084F83F3084F8403084F8413084F883
S31508008140423084F8433084F8443084F8453084F863
S315080081503D30002010BD80F83C20FFF7F9FDDBE735
S3150800816001207047036A23F0100370B40362036AA0
S31508008170446882690D6822F4E64242EA05228D685F
S3150800818023F0200343EA05130C4DA84206D049689C
S315080081904460826170BC816303627047CD6823F0D6
S315080081A0800343EA0513D1E9055624F440643543B0
S315080081B023F0400344EA8504E9E700BF00000140D4
S315080081C038B590F83C30012B57D0012304460D46AC
S315080081D080F83C300C2A08D8DFE802F01E070707AB
S315080081E02E0707073F0707070C000120002384F81E
S315080081F03C3038BD0068FFF7F9FCC3692A6943F4C7
S315080082000063C361C36923F48063C361C36943EA36
S315080082100223C3610020E9E70068FFF791FC836940
S315080082202A6943F008038361836923F004038361A1
S31508008230836913438361EDE70068FFF793FF83695A
S315080082402A6943F400638361836923F48063836145
S31508008250836943EA02238361DCE70068FFF79AFC37
S31508008260C3692A6943F00803C361C36923F0040399
S31508008270C361C3691343C361CCE7022038BD00BF9D
S3150800828090F83C20012A2FD003460268022030B419
S3150800829083F83D0050680D68946820F07000284304
S315080082A050601248824212D0B2F1804F0FD0A0F52A
S315080082B07C4082420BD000F58060824207D000F5F0
S315080082C08060824203D000F59A30824204D1496820
S315080082D024F080040C4394600020012283F83D209A
S315080082E083F83C0030BC704702207047000001400C
S315080082F090F83C30012B23D010B4D1E9024323F483
S3150800830040730246234348680C6823F4806303439A
S3150800831023F400630869234323F48053034348691D
S31508008320CC6923F40053034323F4804310680021E7
S315080083302343436482F83C1008465DF8044B7047B3
S3150800834002207047704700BF704700BFF0B511F0B4
S315080083500F0C1CBF0CF1FF3C5FFA8CFC090995B0A9
S315080083607BD00139CBB24FF4E776DE4006F0010642
S315080083706A4F6B4C00EBC0021A4407EB8212516835
S31508008380A1424FEAC00278D0664CA14268D0664C3A
S31508008390A14200F09A801118194407EB8111634C29
S315080083A0096BA14276D0B1F1804F00F08180604C14
S315080083B0A14200F097805F4CA14200F0A1801044D2
S315080083C0184407EB80145C4B850133F81CC0E06A3F
S315080083D00222CDE91022002301220F92C0E90433BC
S315080083E0C0E901C34FF47A730160C360FFF75EFE0C
S315080083F04FF480530AA9E06A0A93FFF7ADFCE06AD6
S31508008400FFF782FE2022002308A9E06ACDE90823A7
S31508008410FFF736FFD4E90323795B60681293CDE949
S315080084200E12227AFDF7F6FC60680EA9FDF7FCFB32
S31508008430A18A236AA069227FCDE90E13636A129383
S31508008440FDF7E8FCA0690EA9FDF7EEFB1EB1D4E91D
S315080084500A10FFF77FFC15B0F0BD0E460B4687E7FE
S315080084603649002406940C6B44F002040C63096B2D
S3150800847001F00201069106998DE73049002405941A
S315080084800C6B44F001040C63096B01F001010591C2
S31508008490059980E704F59C3400250195656C45F03F
S315080084A001056564646C04F001040194019C86E787
S315080084B0224C00250295256C45F001052564246C9F
S315080084C004F001040294029C79E71C4900240794ED
S315080084D00C6B44F004040C63096B01F0040107916A
S315080084E0079958E704F50D3400250395256C45F0E2
S315080084F002052564246C04F002040394039C5EE7D9
S3150800850004F50C3400250495256C45F0040525640E
S31508008510246C04F004040494049C50E764000020CE
S31508008520000002400004024000080240000001402A
S315080085300004004000080040E40D00200038024016
S31508008540F8B50E4BDC7C14F07F0416D14FF480721C
S315080085500B4D0C4FA3F8132026463B7885F824606C
S3150800856003F00703072BE0B202D12978FFF7EEFEE6
S315080085700134062C05F12805EFD1F8BDE8160020D0
S31508008580F815002000170020F8B5124B93F91310C0
S31508008590DA7C00291CDDD97B0F4D104F002462F0D0
S315080085A07F0201311C75DA74D97301263B7885F888
S315080085B0246003F00703072BE0B204D1297801F001
S315080085C00F01FFF7C3FE0134062C05F12805EDD18E
S315080085D0F8BD00BFE8160020F81500200017002097
S315080085E0037813B18278012A00D07047C278162A18
S315080085F0FBD10279022A19D0032AF6D14379012B35
S31508008600F3D1334A00F108032C3033F802CC53F87F
S31508008610061B91609842A2F802C002F12802F4D122
S315080086202C4A137843F00403137070474279012AE1
S3150800863002D0022A34D0704770B5274D244A6B748D
S3150800864000F1050E00F10A0100F10B0641F27B5418
S3150800865041F27C501EF8013F137031F8023F9382B5
S3150800866091F80CC082F826C003F1FF3C1FFA8CFC77
S31508008670A44588BF034691F80DC082F827C0B645C1
S31508008680938202F12802E5D112492B7C0A7843F03D
S31508008690100342F001020A200A702B74E88270BDAA
S315080086A00B4A031D103033F8021FD18299891183B2
S315080086B0834202F12802F6D107480649027C0B7864
S315080086C022F0100243F0020302740B70704700BFD9
S315080086D0F815002000170020E816002038B50C46CB
S315080086E0264D2B236A7C637016232270E3700221C1
S315080086F004220123A17063712271214B2988AA885B
S31508008700E180228193F89D2093F8C500297C120305
S31508008710000400F4702092B2024393F8250000F09A
S315080087200F00024493F8ED00000500F470000906F6
S3150800873001F0F85102440A4493F8750093F84D1075
S315080087400002090100F47060C9B201430A44C4F882
S31508008750162004F1140004F10802598A22F8021FAF
S3150800876099881182904203F12803F6D12B212046DD
S3150800877001F01AF884F82B0038BD00BFE81600206F
S31508008780F815002038B50F4D2B7813F0080018D0CF
S31508008790002400E02B7803F00703072B4FF01101A4
S315080087A0204601D1FFF7D2FD0134E4B2062CF1D1FF
S315080087B0054B997B1A7C0120014442F00802997303
S315080087C01A7438BD00170020E8160020154810B5A1
S315080087D0FCF758F8144A002302F1F00092F8261024
S315080087E028320B449042DBB2F8D103B910BD0F4BC7
S315080087F00C485A7C0E490F4C0023C0E9004112016F
S315080088004FF48041C0E90232C0E90413C0E90633D7
S315080088100362FDF70DFB0028E8D0BDE81040FCF721
S3150800882015B900BF08130020F8150020E816002027
S31508008830E093040000580040084B094941F27C5275
S315080088400020C8749A829A87A3F86420A3F88C201B
S31508008850A3F8B420A3F8DC20704700BFF815002061
S31508008860E81600202DE9F0472A4E3378072B84B006
S3150800887002D004B0BDE8F087FFF7A8FF4FF0000A62
S31508008880DFF8A080244CDFF8A090244D574607EB6C
S315080088900A0308EB831301205A6B6946CDE90020C9
S315080088A0022320460293FCF7B5FE2046FCF7E6FDB8
S315080088B04FF4FA712046FCF751FEE0B12B780133EC
S315080088C0DBB2052B2B70E2D93378154D002403F063
S315080088D00702072AE0B203D12978FFF737FD337874
S315080088E00134062C05F12805F1D143F0080333704D
S315080088F004B0BDE8F0872046FCF788FE29F81A0080
S315080089000AF1010A5FFA8AFABAF1060FDCD04FEAD1
S31508008910CA07BCE70017002018100020F21500202F
S31508008920F815002064000020100000202DE9F04F03
S31508008930DFF8E09299F80030180783B040F110810B
S31508008940B04DDFF8D4A2DFF8D48257462C4600266D
S3150800895023781B0915D094F824105A1E0129D2B27F
S315080089600CD0023B072B0CD8DFE813F0FD00FD0006
S31508008970FD001501150135010B005A01062A00F004
S31508008980E9810136062E04F1280408F1010807F5E5
S315080089901077DDD19C4FFB7B0E2B00F26582B7F971
S315080089A00420FB88E12A40F30681B3F5FA7F40F2FA
S315080089B04081FB7C4FF47A7243F00103FA80FB7422
S315080089C0FFF7E2FD3B7C002243F001037A753B7416
S315080089D08C4CDFF83CB2002642F2283A44F2506842
S315080089E00FE0524212B2934211DB94F8253013F08D
S315080089F0010240F04A81A2830136062E04F12804BA
S31508008A0037D0B4F91030A28A9342F0B2E9DD534464
S31508008A109AB24245A38B02D9FA339BB2A38340F696
S31508008A20B732934240F2118199F8003003F00703F8
S31508008A300122072B84F8242004D1217801F00F01A4
S31508008A40FFF784FC94F8253043F0010384F82530B9
S31508008A50FB7B0133FB734FF4FA53A38301360023E0
S31508008A60ABF80030062E4FF00103BB7404F128045E
S31508008A70C7D10026634CB0464FF0010A0FE0228C9E
S31508008A80531C9BB2052A238400F2E880628C9A4222
S31508008A9000D263840136062E04F128040AD0E38B3B
S31508008AA0B3F52F6FEBD80136062EA4F8208004F113
S31508008AB02804F4D10023554EBB601C4618469C4634
S31508008AC0194605E02835AE4299B24FF0010C0DD093
S31508008AD0B5F910309AB2002B02EB0103F2DC283507
S31508008AE0801AAE4280B24FF00104F1D104B1788108
S31508008AF0BCF1000F00F0E08043F6982399423981D3
S31508008B0040F2DA8046F2A813994240F2E980BB891E
S31508008B101E339BB240F6B732591C9342B98100F214
S31508008B20ED803B7CBA7C43F004033B746AB9384950
S31508008B300B884EF65F20834240F27781FB7B0A80E2
S31508008B40013BDBB20D2B98BFFB73B7F900305A2BEC
S31508008B5000F3EC803A7C920702D53B2B40F36F81F9
S31508008B6003B0BDE8F08F06EBC60313440AEB831384
S31508008B70D3E90A3162880968B2F57A7F80F00B81F9
S31508008B80002B00F06F81042B00F0C181082B0CBF6D
S31508008B90CA630A64F5E606EBC60313449A010AEBB0
S31508008BA083133AF8021062885868002A40F0EF806A
S31508008BB0FDF730F9E5E6002B40F03A81FB7CD90752
S31508008BC07FF506AF23F00103FB74FFF7B9FC00231A
S31508008BD03B74FB80FCE6D7F8AC31D7F8A8211968B6
S31508008BE06388002B40F0BA806383A380002A00F0D4
S31508008BF03981042A00F05781082A00F0D6800B64D0
S31508008C00BFE600BFF8150020E8160020E816002089
S31508008C10F61500200017002064000020EC1500203F
S31508008C2098F80030632B00F2C280013388F80030D0
S31508008C30A7E601339BB2B3F5FA7FFB80BFF4B9AE62
S31508008C40B2F5C87F3FF7B5AEC2E601339BB240F630
S31508008C50B8329342A3837FF4CFAEE5E699F80030A5
S31508008C6084F824A003F00703072B05D12178F0B276
S31508008C7001F00F01FFF76AFB94F82530A4F820806D
S31508008C8043F0020384F8253004E7A28B002A5AD160
S31508008C90FA7B0E2A3FF6B0AE99F8002002F00702DA
S31508008CA0072A00F0248123F0010384F825300023E5
S31508008CB0A38384F824309FE67B8943F6982293425F
S31508008CC00FD83B7C13F0040300F0E880BB89002B27
S31508008CD040F00681FB7B0E2B40F21D81BA7C25E70E
S31508008CE07B8946F2A81293423FF611AFBB8940F63C
S31508008CF0B732591C9342B9817FF613AFFB7C43F018
S31508008D000803FB74FFF740FC3B7C894943F00403E6
S31508008D103B74B7F9003041F288320020BA815A2BE9
S31508008D204FF001020880BA747FF714AFFB7C43F05A
S31508008D302003FB74FFF728FC3B7C43F002033B74DB
S31508008D4003B0BDE8F08F013A92B2A283002A7FF4FD
S31508008D5053AE9DE700236383A38012E6608BB4F8C5
S31508008D6018C0844540F28B800130E38A6083B4F9E9
S31508008D7010009842A388C0F2A18004DD012B02D915
S31508008D80013B9BB2A380002A7FF433AF75E0012232
S31508008D90FDF740F8F5E5002B6DD0042B00F0818037
S31508008DA0082B40F2E9337FF42AAFCB63E9E594F860
S31508008DB02610DFF888B1CDF800B00223019394F8A5
S31508008DC027205C4809010123FDF7FAF85A49E28A87
S31508008DD0BBF80030A1FB021261885209CB1A02FBCC
S31508008DE003F307EE903A238B07EE103AF8EEE77A8C
S31508008DF0B8EEC77A77EE277AF5EEC07AF1EE10FA72
S31508008E0028DD39B3D7F82C32D7F828221968FCEEB2
S31508008E10E77A17EE903A9BB2B3F57A7FB3D352B39B
S31508008E20042A3ED040F2E933E6E601330B808CE6AD
S31508008E30013B9BB2FB80002B7FF4CAADBEE6FFF771
S31508008E407FFBFA7C3B7C22F0200223F00203FA74B3
S31508008E503B7485E6D7F82C321A68D7F8283223BB34
S31508008E6053638EE54A638CE5FB7C43F04003FB7451
S31508008E70FFF78AFB93E540F2E9334B6381E5B4F9E2
S31508008E8010C0A0889C4524DB04DD012802D90138DE
S31508008E9080B2A080002A33D1486372E5BA7CBB81D0
S31508008EA044E640F2E9338B636BE5042B25D0082BA7
S31508008EB04FF000030CBFD363136462E5B3F57A7F02
S31508008EC03FF661AF02339BB2A380002A7FF491AECE
S31508008ED0D3E7B0F57A7FDDD8023080B2A080D9E733
S31508008EE0013B9BB2BB81002B7FF4F8AEF2E62178FA
S31508008EF0FFF72CFA94F82530D5E60023936340E56E
S31508008F00042A06D0082A0CBFC863086439E58A63B0
S31508008F1037E5886335E5FB7C23F00803FB74FFF728
S31508008F200FFB3B7CBA7C23F004033B74FEE500BFD1
S31508008F30F6150020081300201F85EB51E8150020C0
S31508008F401E4B1B781B0730D570B51D4C1D4D04F103
S31508008F50F00604E02834B44205F5107524D094F8D8
S31508008F602430012BF6D023781B09082BF2D162880E
S31508008F70B2F5FA7F4FF0640304D8BAB14CF2503315
S31508008F80B3FBF2F3E268511C9A42E160E2D9B5F804
S31508008F90D411D5F8D801FCF741FF0023E360283443
S31508008FA0B44205F51075DAD170BD7047B5F8D4111D
S31508008FB0D5F8D801FCF72EFFCCE700BF0017002034
S31508008FC0F8150020640000202DE9F04FDFF8D4A240
S31508008FD0DFF8D482A64E89B0544645460AF1F00910
S31508008FE0012717E0AB6B0697CDE90437FCF712FBB0
S31508008FF03046FCF743FA4FF4FA713046FCF7AEFAFE
S3150800900018B93046FCF702FBE0832834A14505F57C
S3150800901010750CD094F82430012B04A93046E1D100
S31508009020002323612834A14505F51075F2D10123E3
S315080090300F2204A98E480492CDE90533FCF7EAFA13
S315080090408B48FCF71BFA8A484FF4FA71FCF786FA44
S31508009050A8B9884B1A78012A00F0DC808448FCF706
S31508009060D5FA07EE900A9FED847A844BF8EE677A74
S3150800907067EE877AFCEEE77A17EE902A9A80012344
S31508009080062204A97A480492CDE90533FCF7C2FA08
S315080090907748FCF7F3F976484FF4FA71FCF75EFA6D
S315080090A000285AD0764B1B781B0753D5DFF8FC915E
S315080090B099F8000000EB8001CC001AF8312012F074
S315080090C00F0203460AEBC1013DD091F82410013A7C
S315080090D00129D6B200F0A380DFF8D4B1321D03927D
S315080090E00BEB4202D288002A00F0BE800636002525
S315080090F05F4C0BEB86062F460DE02046FCF786FAFA
S31508009100039B0BEB43030135DB88AAB29342074462
S315080091103FD999F800307268069203EBC30308EB4F
S31508009120831304A95B6B04932046FCF773FA204665
S31508009130FCF7A4F94FF4FA712046FCF70FFA002859
S31508009140DBD099F80030042B9ABF0133DBB2002339
S3150800915089F8003009B0BDE8F08F4548474C494DBD
S31508009160FCF754FA484BB4F90020484980B21880F5
S31508009170A3880092C31A9BB24548112200F08CFAC4
S3150800918081B2284600F028FA00288BD16B88238004
S3150800919088E799F800003F4CB7FBF3F1C0EBC00035
S315080091A089B204EBC00000F017FA99F800300028DD
S315080091B0C9D103EBC30108EB8118C3EBC30198F8C7
S315080091C03C50354A04EBC101012D32F81320498879
S315080091D02AD0521A07EE902A9FED277A9FED2F6A1A
S315080091E0F8EEE77A67EE877A9FED2D7AC7EE866AFC
S315080091F0C6EE877AFDEEE77A17EE902A12B262F388
S315080092000F0062F31F4003EB83020AEBC20ACAF897
S31508009210100098E718701648FCF7F8F92FE710348D
S3150800922000224AF804208EE78A1A07EE902A9FED54
S31508009230127A9FED1A6AF8EEE77A67EE877A9FED5B
S31508009240187AC7EE866AC6EE877AFDEEE77A17EED3
S31508009250902A12B262F30F0062F31F4003EB8302F7
S315080092600AEBC20210616EE71346174693E700BF82
S31508009270181000200C000020E54C4E3FE816002090
S31508009280001700201C0E0020F41500201C000020EA
S3150800929040000020540E0020100000200000484224
S315080092A00AD7A33BF815002064000020E415002027
S315080092B0E40D002010B50D4C2046FEF7E5FA2046D1
S315080092C0FEF7CEFA23689B681B0600D510BD084832
S315080092D01021FCF799FD0028F8D02046054A0649D2
S315080092E0BDE810402C23FEF735BA00BF2014002035
S315080092F00000024024170020581700202DE988484E
S31508009300424CDFF82C81424F424EDFF82891424DFD
S31508009310DFF818B1DFF820A14DE03388B3F57A7F7E
S315080093205CD201339BB20129338002D1B3F5167F93
S3150800933056D899F80030002B3AD028882288B5F8F4
S3150800934002C0688083183548A5F804C06344A0FBAA
S3150800935003035B08D81E0021824231802A803B80A5
S3150800936004DB03339A42CCBF00210121002388F88D
S315080093700010238089F8003001224FF4005150462E
S31508009380FCF748FDDBF800309B681B060AD4244826
S315080093901021FCF739FD28B1224A234923482C23FA
S315080093A0FEF7D8F900224FF400515046FCF732FD7B
S315080093B0012000F03DFA23883A8898F80010013316
S315080093C09BB2053A93422380A7D1012919D0338845
S315080093D0B3F57A7FADD201333380AAE70129A8D144
S315080093E001224FF400515046FCF714FDFFF7CAF965
S315080093F000B9308000224FF400515046FCF70AFDB0
S3150800940097E709490748FFF769F9B5E708170020FC
S31508009410061700200217002014170020ABAAAAAAD4
S3150800942000000240241700205817002020140020AE
S3150800943004170020101700200008024030B51B4D05
S315080094401B4C89B0284601224FF40051FCF7E2FC78
S315080094501849194B194AA260C4E90013204601238A
S315080094602B21237300F0A0F9214684F82B00144C15
S31508009470144A15482C23FEF76DF90FCC0DF1040C90
S31508009480ACE80F0094E807008CE80700002101A863
S3150800949000F09EF90D4B044600224FF40051284671
S315080094A01C60FCF7B7FC09B030BD00BF00080240DD
S315080094B058170020012B650000001414020602004C
S315080094C02CA8000824170020201400200C170020C0
S315080094D030B53948394D83B001224FF40051FCF7B5
S315080094E099FC40F22D1403E0013CA4B2002C60D094
S315080094F010212846FCF788FC0028F5D0304C2B2193
